:020000040800F2
:10000000A80A0020010100085D160008B3140008CA
:100010005916000881130008C71B000800000000E3
:10002000000000000000000000000000751700083C
:1000300085130008000000005F16000895190008ED
:100040001B0100081B0100081B0100081B01000820
:100050001B0100081B0100081B0100081B01000810
:100060001B0100081B0100081B0100081B01000800
:100070001B0100081B0100081B0100081B010008F0
:100080001B0100081B0100081B0100081B010008E0
:100090001B0100081B0100081B0100081B010008D0
:1000A0001B0100081B0100081B0100081B010008C0
:1000B0001B0100081B0100081B0100081B010008B0
:1000C0001B0100081B0100081B0100081B010008A0
:1000D0001B0100081B0100081B0100081B01000890
:1000E0001B0100081B0100081B010008DFF80CD0F1
:1000F00000F07CFC00480047A13B0008A80A002053
:100100000648804706480047FEE7FEE7FEE7FEE7B1
:10011000FEE7FEE7FEE7FEE7FEE7FEE799190008C7
:10012000ED0000080FB400B589B00BA800906A4636
:1001300003480A9900F04EFA09B05DF814FB00007C
:10014000140000202DE9FF5F1D464FF0FF3BD5E96D
:10015000014691465F464FF00008A9697F1C01984F
:100160008847296A824688470028F6D1BAF1FF3FBE
:100170000CD024F4C064002E19DD600614D5BAF149
:100180002B0F09D0BAF12D0F0ED103E0584604B061
:10019000BDE8F09F44F48064A9697F1C01988847FA
:1001A000761E8246002E02DDBAF1300F03D0B9F17F
:1001B000000F26D032E0A969761E44F400747F1C3B
:1001C000019888478246002E05DDBAF1780F06D0E7
:1001D000BAF1580F03D0B9F1000F10D01EE0B9F1F9
:1001E000000F02D0B9F1100F18D1A969761E24F4BE
:1001F00000747F1C019888478246102002E0082086
:1002000000E00A20814609E008FB0908A969761E7A
:1002100044F400747F1C019888478246002E05DD57
:100220004946504600F0C7F90028EDDAE96901981F
:100230008847A00502D46FF00100A8E7E00725D1A8
:10024000600613D5600502D5C8F1000000E0404605
:1002500029680A1D2A600968220501D5087015E081
:10026000220701D5088011E008600FE02868011D11
:1002700029600068210502D580F8008006E021078A
:1002800002D5A0F8008001E0C0F8008038467EE783
:1002900080EA010210B502F00043400022D04A007B
:1002A0001FD0010E01EB1261C0F35600C2F35602DB
:1002B00040F4000042F40002A0FB022000047F3959
:1002C000140400D0401C50EA124001D44000491EE2
:1002D000C2B20C0604EBD010401C4008802A02D0A9
:1002E00003E0002010BD20F00100002900DA00200A
:1002F000184310BD30B480EA010202F0004530F02E
:10030000004221F0004013D090B1C30DD40DC2F3D0
:100310001601C0F31600E41A41F4000140F4000293
:100320007D34914201D3641C00E04900002C02DAC4
:1003300030BC002070474FF400000023914201D3ED
:10034000891A034340084FEA4101F7D151B1914264
:1003500002D14FF0004105E002D24FF0010101E06F
:100360006FF0010103EBC450284430BC00F03CB9ED
:100370002DE9FE4F81EA030404F0004421F000411E
:1003800000944FF0000B23F0004350EA01045ED0CC
:1003900052EA03045BD0C3F30A54C1F30A552C4458
:1003A000A4F2F3340194A0FB0254C1F3130141F40D
:1003B0008011C3F3130343F4801301FB024400FBD9
:1003C000034E840A970A44EA815447EA8357A4FB00
:1003D000076802958D0A05FB07854FEA932C04FBFD
:1003E0000C542705029D4FEA065847EA1637B5EB2D
:1003F00008056EEB070C870E920E47EA811742EA5A
:100400008312A7FB0201B6EB0B0164EB00042B0D7A
:1004100043EA0C335E1844EB1C50DA465146E7FBC6
:100420000201C5F313044FEA0B3343EA14534FEAB6
:100430000432019C43EA0603A4F10C040294009CDC
:10044000CDE900B400F016F903B0BDE8F08F00204C
:100450000146F9E796230022114600F0CEB80EB50A
:1004600040F2334102910021CDE900110A460B46CA
:1004700000F000F903B000BDC1F30A5210B5C1F39A
:10048000130140F2FF3341F480119A4201DA002057
:1004900010BD40F233439A42A2F2334203DC52428F
:1004A00000F079F810BD904010BD00F0004230F02F
:1004B00000400AD0C10D01F56071C0F3160042EA98
:1004C0000151C208400711437047002001467047A0
:1004D00001F0004330B421F0004150EA010206D09F
:1004E0000A0DA2F56072C1F31301002A02DC30BCD0
:1004F00000207047440F44EAC104C100E01830BC3A
:1005000000EBC25000F070B830B50B460146002039
:100510002022012409E021FA02F59D4205D303FAC5
:1005200002F5491B04FA02F52844151EA2F1010246
:10053000F1DC30BD2DE9F05F0546002092469B4678
:1005400088460646814640241BE0284641464746E9
:10055000224600F020F853465A46C01A914110D363
:1005600011461846224600F069FA2D1A67EB010879
:100570004F4622460120002100F060FA17EB0009E7
:100580004E41201EA4F10104DFDC484631462A46D4
:100590004346BDE8F09F202A04DB203A21FA02F00E
:1005A0000021704721FA02F3D040C2F120029140AD
:1005B0000843194670473A2800D2303820F020020C
:1005C000412A01D3A2F13700884201D34FF0FF3016
:1005D00070470000024B9361024BD36100F056BAA2
:1005E000CD2600082D0A00080029A8BF7047401C2E
:1005F000490008BF20F00100704710B4B0FA80FC39
:1006000000FA0CF050EA010404BF10BC704749B175
:10061000CCF1200421FA04F411FA0CF118BF0121E5
:1006200021430843A3EB0C01CB1D4FEA00614FEAC5
:10063000102042BF002010BC704700EBC350104494
:100640000029A4BF10BC7047401C490008BF20F01F
:10065000010010BC704710B5141E73F1000408DAD5
:10066000401C41F1000192185B411A4301D120F076
:10067000010010BD2DE9F04D92469B4611B1B1FA33
:1006800081F202E0B0FA80F22032904600F0D6F912
:1006900004460F4640EA0A0041EA0B0153465A4617
:1006A000084313D0114653EA010019D0C8F14002A3
:1006B0005046FFF770FF05460E46504659464246E3
:1006C00000F0BCF9084305D0012004E0204639467B
:1006D000BDE8F08D0020054346EAE0762C43374321
:1006E0000A986305E40AA0EB08000022FD0A44EA28
:1006F00047540A3002D500200146E9E701051019E8
:100700006941DDE9084500196941BDE8F04DA2E7FE
:100710002DE9FE4F804681EA0300C00F0C46009091
:1007200021F0004123F00045B8EB0200A94105D2B9
:100730004046214690461C460B46024623F00040A8
:10074000104347D0270DC7F30A00C3F30A510290A4
:10075000401A019040286BDAC3F3130040F4801B69
:100760000098924620B10023D2EB030A63EB0B0BF7
:1007700001985946C0F14002504600F05FF9064624
:100780000D4650465946019A00F067F910EB0800F3
:100790006141002487EA115284EAE7731A4340D08A
:1007A000009A62B3019A012A4FEA075215DC001B36
:1007B00061EB02014FF0004202EA0752CDE900422C
:1007C000001C41F5801132462B46FFF753FF03B062
:1007D000BDE8F08F40462146F9E7001B61EB0201BE
:1007E000001C41F5801300185B412018A2F500178A
:1007F00047EB030140EAD570B6196D4111E06D0871
:100800004FEA360645EAC0754FEA0752001B61EB16
:100810000201001C41F5801149084FEA300000191F
:10082000514132462B4603B0BDE8F04FFFF713BFEE
:100830000098012240000023D0EB020263EBE0733A
:10084000009821464FEAE074B8EB000061EB040128
:10085000E9E783F000435BE781F0004158E72DE9C9
:10086000F04D81EA030404F0004B21F000451446EA
:100870004FF0000A23F0004150EA050220D054EA6C
:1008800001021DD0C5F30A570246C5F31303C1F395
:100890001300C1F30A5640F4801543F48013A7EB0C
:1008A0000608101BD64608F2FD3873EB050002D38C
:1008B00008F1010801E092185B41B8F1000F03DA7A
:1008C00000200146BDE8F08D00204FF4801106465F
:1008D00084460EE0171B73EB050705D3121B63EB71
:1008E000050306434CEA010C49084FEA3000921810
:1008F0005B4150EA0107EDD152EA030012D082EACF
:10090000040083EA0501084305D0101BAB4106D261
:100910000122002306E000224FF0004302E06FF0C6
:10092000010253101AEB06004CEB085110EB0A00C1
:1009300041EB0B01BDE8F04DFFF78DBE70B521F026
:10094000004303430CD0C1F30A550024D5EB040542
:1009500064EB0403D617AD1AB34102DB0020014655
:1009600070BD201841EB025170BD0EB5C10F80EA79
:10097000E0700844CA07002140F233438DE80E00BE
:100980000A460B46FFF776FE03B000BDC1F30A52DC
:10099000C1F3130140F2FF3341F480119A4202DAAD
:1009A00000200146704740F233439A42A2F233429C
:1009B00002DC5242FFF7EFBD00F040B830B5041E34
:1009C00071F1000404DB4FF00044404264EB01018C
:1009D000141E73F1000405DB1C464FF00043524225
:1009E00063EB0403994208BF904230BD064C074DAB
:1009F00006E0E06840F0010394E8070098471034EF
:100A0000AC42F6D3FFF776FBDC5B0008FC5B00082A
:100A1000094910B508784C1C18B1401E0870205CBC
:100A200010BD00210720ABBE207010BD0249087820
:100A3000421C0A707047000020000020202A04DBBE
:100A4000203A00FA02F1002070479140C2F12003E1
:100A500020FA03F3194390407047202A06DBCB1796
:100A6000203A41FA02F043EAE07306E041FA02F369
:100A7000D040C2F12002914008431946704700005F
:100A8000026811441378016018467047D160044928
:100A900051610449116200211161114600F022B830
:100AA000810A0008D90A000830B5041E71F100045B
:100AB00004DB4FF00044404264EB0101141E73F16B
:100AC000000405DB1C464FF00043524263EB040375
:100AD0008B4208BF824230BDC0B24FF4F05100F0EB
:100AE00097B900002DE9F34F8BB04FF0000801F1EA
:100AF0000C000C464FF0010B46460DF1080A019020
:100B00006269012101989047051E2DD0252D2CD01A
:100B1000216A8847C0B16269012101989047216A22
:100B200088470028F7D1411E62690198904700E08C
:100B3000761CA1690B988847216A88470028F7D15D
:100B4000E1690B988847DBE7A1690B98884707465E
:100B5000A84201D1761CD3E7E1690B9888477F1C36
:100B600002D1B8F1000F6FD046E1002762693D461F
:100B70003946019890472A2804D1626901210198D9
:100B800090470125DFF8849262690121019890471E
:100B9000A0F130010A290AD24F45E5DC07EB8701B5
:100BA00000EB4107303FDFD445F01005ECE7E906E4
:100BB00001D46FF000476C280AD04C2814D0682864
:100BC00015D06A280DD074281CD07A281AD01DE0C0
:100BD00062690121019890476C2802D045F0040514
:100BE00014E045F002050DE045F020050AE06269D9
:100BF000012101989047682802D045F0080505E0DA
:100C000045F400656269012101989047C4E90157E4
:100C100065283DD019DC58287AD00CDC452837D01F
:100C200004DC252826D0412831D131E046282FD0B8
:100C300047282CD12CE05B2877D0612828D0632866
:100C40007CD0642823D15AE0D0E06F2848D008DC5B
:100C500066281DD067281BD0692821D06E2816D1A0
:100C600027E0702845D0732868D0752847D07828A9
:100C70000DD14DE0A1690B988847054625283FF422
:100C800069AFE1690B9888476D1C3FF46AAFB3E028
:100C900023466A466FF001000B99AFF300809EE097
:100CA00045F040006060A80723464FF0000236D4AC
:100CB0003EE0E8077FF447AF2068011D216000682F
:100CC000290501D506701BE7290701D5068017E71E
:100CD000A90703D5F117C0E9006111E706600FE726
:100CE00045F040006060A80723464FF0080216D484
:100CF0001EE040F60E0125EA0100606016E045F0B6
:100D000040006060A80723464FF00A0207D40FE0B6
:100D100045F040006060A80708D5234610226FF018
:100D200001000B99AFF3008059E007E02346102241
:100D30006FF001000B99FFF705FA50E04FF0000942
:100D40004F464B46632802D05B2806D040E0E806B9
:100D500001D40120A06001273AE0626901210198D5
:100D600090475E2805D14FF0010962694946019814
:100D70009047216939B900210A46534643F821209A
:100D8000491C0829FADBB0B3216969B9C11700EB26
:100D9000D16253110AEB830122F01F02821A012053
:100DA0000B68904003430B606269012101989047F2
:100DB0005D28E8D1B9F1000F09D00020514651F863
:100DC0002020D24341F82020401C0828F7DB02AB4A
:100DD000224600976FF001000B99AFF300800028C6
:100DE0000CDA401C08D1BBF1000F05D04FF0FF30EA
:100DF0000DB0BDE8F08FFFE74046F9E7E90701D104
:100E000008F1010806444FF0000B79E6CCCCCC0C7D
:100E10007F2801D9002208E0064A02EB5002C007F1
:100E2000127800D1120902F00F0201209040084010
:100E300070470000E058000810B5044601F01EFDA0
:100E4000462001F0EDFC01F045FD012800D110BD68
:100E5000204601F0E5FC01F03DFD012801D1022012
:100E6000F5E701F025FD0020F1E710B500F007F8E7
:100E70001120FFF7E1FF782000F06EFD10BD10B5E6
:100E80000120FFF7D9FF10BD10B5002401F0F6FCDA
:100E9000472001F0C5FC01F01DFD012801D1002013
:100EA00010BD01F099FC044601F032FC01F094FC05
:100EB00000EB042084B201F077FC01F0F9FC20463D
:100EC000EEE710B5044601F0DDFDB82001F0ACFD01
:100ED00001F004FE012800D110BD204601F0A4FD60
:100EE00001F0FCFD012801D10220F5E701F0E4FD4D
:100EF0000020F1E710B500F007F81120FFF7E1FF3F
:100F0000782000F029FD10BD10B50120FFF7D9FFB2
:100F100010BD10B5002401F0B5FDB92001F084FD2D
:100F200001F0DCFD012801D1002010BD01F058FDC9
:100F3000044601F0F1FC01F053FD00EB042084B203
:100F400001F036FD01F0B8FD2046EEE710B504468D
:100F500001F09CFE462001F06BFE01F0C3FE01286B
:100F600000D110BD204601F063FE01F0BBFE012858
:100F700001D10220F5E701F0A3FE0020F1E710B552
:100F800000F007F81120FFF7E1FF782000F0E4FC03
:100F900010BD10B50120FFF7D9FF10BD10B500241A
:100FA00001F074FE472001F043FE01F09BFE012892
:100FB00001D1002010BD01F017FE044601F0B0FD84
:100FC00001F012FE00EB042084B201F0F5FD01F007
:100FD00077FE2046EEE710B5044601F05BFFB8202F
:100FE00001F02AFF01F082FF012800D110BD204648
:100FF00001F022FF01F07AFF012801D10220F5E77C
:1010000001F062FF0020F1E710B500F007F81120B1
:10101000FFF7E1FF782000F09FFC10BD10B5012024
:10102000FFF7D9FF10BD10B5002401F033FFB92040
:1010300001F002FF01F05AFF012801D1002010BD8C
:1010400001F0D6FE044601F06FFE01F0D1FE00EB88
:10105000042084B201F0B4FE01F036FF2046EEE732
:1010600010B5044602F01AF8462001F0E9FF02F03C
:1010700041F8012800D110BD204601F0E1FF02F047
:1010800039F8012801D10220F5E702F021F800200B
:10109000F1E710B500F007F81120FFF7E1FF782025
:1010A00000F05AFC10BD10B50120FFF7D9FF10BDAC
:1010B00010B5002401F0F2FF472001F0C1FF02F05B
:1010C00019F8012801D1002010BD01F095FF044658
:1010D00001F02EFF01F090FF00EB042084B201F03C
:1010E00073FF01F0F5FF2046EEE710B5044602F06D
:1010F000D9F8B82002F0A8F802F000F9012800D1D0
:1011000010BD204602F0A0F802F0F8F8012801D145
:101110000220F5E702F0E0F80020F1E710B500F05A
:1011200007F81120FFF7E1FF782000F015FC10BD53
:1011300010B50120FFF7D9FF10BD10B5002402F053
:10114000B1F8B92002F080F802F0D8F8012801D1F6
:10115000002010BD02F054F8044601F0EDFF02F04B
:101160004FF800EB042084B202F032F802F0B4F839
:101170002046EEE710B5044602F098F9462002F04A
:1011800067F902F0BFF9012800D110BD204602F036
:101190005FF902F0B7F9012801D10220F5E702F06A
:1011A0009FF90020F1E710B500F007F81120FFF7D4
:1011B000E1FF782000F0D0FB10BD10B50120FFF753
:1011C000D9FF10BD10B5002402F070F9472002F0DD
:1011D0003FF902F097F9012801D1002010BD02F07B
:1011E00013F9044602F0ACF802F00EF900EB04200B
:1011F00084B202F0F1F802F073F92046EEE710B580
:10120000044602F057FAB82002F026FA02F07EFAFD
:10121000012800D110BD204602F01EFA02F076FA35
:10122000012801D10220F5E702F05EFA0020F1E783
:1012300010B500F007F81120FFF7E1FF782000F06B
:101240008BFB10BD10B50120FFF7D9FF10BD10B505
:10125000002402F02FFAB92002F0FEF902F056FA4B
:10126000012801D1002010BD02F0D2F9044602F09D
:101270006BF902F0CDF900EB042084B202F0B0F972
:1012800002F032FA2046EEE710B5462001F074FA7B
:1012900018B932A000F09AFC02E031A000F096FCF0
:1012A000FFF7E3FDB82001F06BFB18B92DA000F0AB
:1012B0008DFC02E02AA000F089FCFFF71BFE46200F
:1012C00001F062FC18B928A000F080FC02E024A024
:1012D00000F07CFCFFF753FEB82001F059FD18B96F
:1012E00022A000F073FC02E01DA000F06FFCFFF7ED
:1012F0008BFE462001F050FE18B91DA000F066FCE0
:1013000002E017A000F062FCFFF7C3FEB82001F076
:1013100047FF18B917A000F059FC02E010A000F038
:1013200055FCFFF7FBFE462002F03EF818B912A06C
:1013300000F04CFC02E00AA000F048FCFFF733FF8D
:10134000B82002F035F918B90CA000F03FFC02E01B
:1013500003A000F03BFCFFF76BFF10BD4100000055
:101360003000000042000000430000004400000084
:101370004500000046000000470000004800000053
:1013800000BFFEE77047002100BF00E0491C81421A
:10139000FCD370472DE9F0410246002500260020CD
:1013A00000230024002791F803C00CF00F0591F8EA
:1013B00003C00CF0100CBCF1000F03D091F802C078
:1013C0004CEA050591F800C0BCF1000F31D014685B
:1013D00000202BE04FF0010C0CFA00F3B1F800C034
:1013E0000CEA03069E4220D183004FF00F0C0CFA4A
:1013F00003F7BC4305FA03FC4CEA040491F803C06C
:10140000BCF1280F06D14FF0010C0CFA00FCC2F819
:1014100014C00AE091F803C0BCF1480F05D14FF0A9
:10142000010C0CFA00FCC2F810C0401C0828D1D3F3
:101430001460B1F800C0BCF1FF0F34DD5468002027
:101440002EE000F1080C4FF0010808FA0CF3B1F897
:1014500000C00CEA03069E4221D183004FF00F0C1E
:101460000CFA03F7BC4305FA03FC4CEA040491F8B8
:1014700003C0BCF1280F05D100F1080C08FA0CF8E4
:10148000C2F8148091F803C0BCF1480F07D100F1F5
:10149000080C4FF0010808FA0CF8C2F81080401C44
:1014A0000828CED35460BDE8F081416170470161E6
:1014B000704700BFFEE7000008B50121042000F0DE
:1014C000DFF80F20ADF8000010208DF80300032096
:1014D0008DF8020069460248FFF75CFF08BD000076
:1014E0000008014008B50121042000F0C9F84FF4BC
:1014F0008050ADF8000010208DF8030003208DF817
:10150000020069460148FFF745FF08BD0008014099
:1015100010B54FF480510248FFF7C7FF10BD00001F
:101520000008014010B54FF480510248FFF7BFFF9B
:1015300010BD00000008014070B5FFF7A5FC06468D
:10154000FEF788FF05460449FEF7D4FE04464FF037
:101550007E51FEF79DFE70BD9A99993F70B5FFF7D9
:10156000D8FC0646FEF776FF05460449FEF7C2FEA4
:1015700004464FF07E51FEF78BFE70BD9A99993F5D
:1015800070B5FFF70BFD0646FEF764FF05460449FC
:10159000FEF7B0FE04464FF07E51FEF779FE70BDB7
:1015A0009A99993F70B5FFF73EFD0646FEF752FF48
:1015B00005460449FEF79EFE04464FF07E51FEF7B5
:1015C00067FE70BD9A99993F70B5FFF771FD0646A9
:1015D000FEF740FF05460449FEF78CFE04464FF037
:1015E0007E51FEF755FE70BD9A99993F70B5FFF791
:1015F000A4FD0646FEF72EFF05460449FEF77AFED7
:1016000004464FF07E51FEF743FE70BD9A99993F14
:1016100070B5FFF7D7FD0646FEF71CFF05460449E7
:10162000FEF768FE04464FF07E51FEF731FE70BDB6
:101630009A99993F70B5FFF70AFE0646FEF70AFF32
:1016400005460449FEF756FE04464FF07E51FEF76C
:101650001FFE70BD9A99993F00BFFEE77047704723
:1016600029B1064AD2690243044BDA6104E0034A15
:10167000D2698243014BDA617047000000100240DA
:1016800029B1064A92690243044B9A6104E0034A75
:1016900092698243014B9A6170470000001002403A
:1016A00030B500210022002400232D4D6D6805F087
:1016B0000C0121B1042905D0082923D105E0294DC9
:1016C000056022E0274D05601FE0254D6D6805F49B
:1016D0007012234D6D6805F48034022505EB9242AB
:1016E0001CB9214D554305600BE01D4D6D6805F497
:1016F00000351DB11C4D5543056002E0194D5543A1
:10170000056002E0174D056000BF00BF144D6D6815
:1017100005F0F0010909154D6B5C0568DD40456079
:101720000F4D6D6805F4E061090A104D6B5C45686A
:10173000DD4085600A4D6D6805F46051C90A0B4DA6
:101740006B5C4568DD40C560054D6D6805F4404142
:10175000890B074D6B5CC568B5FBF3F5056130BDC2
:101760000010024000127A0000093D000000002035
:1017700010000020704710B500F002F810BD000006
:101780000CB50020019000903348006840F4803090
:101790003149086000BF3048006800F40030009014
:1017A0000198401C0190009818B90198B0F5A06FFD
:1017B000F1D12948006800F4003010B101200090F8
:1017C00001E0002000900098012843D123480068E0
:1017D00040F01000214908600846006820F003002E
:1017E00008600846006840F0020008601A48406837
:1017F000194948600846406848600846406840F417
:10180000806048600846406820F47C1048600846C4
:10181000406840F4E81048600846006840F0807076
:10182000086000BF0C48006800F000700028F9D084
:101830000948406820F003000749486008464068AE
:1018400040F00200486000BF0348406800F00C0010
:101850000828F9D10CBD0000001002400020024011
:101860002DE9F05F8346894600245846FEF7F7FDD0
:101870000746224A224BFEF77BFD0546FEF7FCFD9C
:10188000824600250BE0204600F086FE00F0B4F80A
:10189000601C84B2082C00D10024681C85B2554518
:1018A00001D2012000E00020B9F1000F01D1012197
:1018B00000E0002108400028E5D100250DE0C4F13A
:1018C000070188B200F068FE00F096F8601C84B250
:1018D000082C00D10024681C85B2554501D2012096
:1018E00000E00020B9F1010F01D1012100E0002149
:1018F00008400028E3D1BDE8F09F00006891ED7C2E
:101900003F35F23F30B50146B1F1807F01D3012070
:1019100030BD21F07F40401E4FF0E0225061501753
:101920000F22002807DA13071D0E094B00F00F04E1
:10193000241F1D5503E013071C0E064B1C5400BF4B
:1019400000204FF0E0229061072010610020DFE7C7
:1019500018ED00E000E400E070B504460C48FFF725
:10196000D1FF002508E000BF4FF0E020006900F43F
:1019700080300028F8D06D1CA542F4D34FF0E02051
:10198000006920F001004FF0E021086170BD000007
:10199000401901007047000010B51348006840F07E
:1019A00001001149086008464068104908400E4986
:1019B0004860084600680E4908400B490860084620
:1019C000006820F4802008600846406820F4FE008B
:1019D00048604FF41F008860FFF7CDFE4FF00060B5
:1019E0000449086010BD0000001002400000FFF82C
:1019F000FFFFF6FE08ED00E010B501210948FFF7F2
:101A000054FD02210748FFF750FD04210548FFF768
:101A10004CFD08210348FFF748FD4FF41670FFF70F
:101A2000B2FC10BD0008014021B1828942F400528D
:101A3000828104E082894DF6FF731A4082817047EB
:101A400000B585B001210820FFF71AFE01218804A6
:101A5000FFF706FE4FF48060ADF8100018208DF8F7
:101A6000130003208DF8120004A91348FFF792FC1D
:101A70004FF40060ADF8100004208DF8130004A9A5
:101A80000D48FFF787FC4FF4E13000900020ADF8DF
:101A90000400ADF80600ADF80800ADF80C000C200D
:101AA000ADF80A006946054800F018F8012103481E
:101AB000FFF7BAFF05B000BD000C01400048004030
:101AC00002460020B1F5007F00D100BF13880B4013
:101AD0000BB1012000E00020704700002DE9F04725
:101AE00086B005460E460024A24600BFA146002748
:101AF000B08900B100BF2F462C8A4CF6FF7004401D
:101B0000F08804432C82AC894EF6F3100440B08870
:101B100031890843718908430443AC81AC8A4FF68C
:101B2000FF400440B0890443AC8201A8FFF7B8FD30
:101B30001F48874202D1DDF810A001E0DDF80CA0BB
:101B4000A88900F4004040B10AEBCA0000EB0A107B
:101B500031684900B0FBF1F807E00AEBCA0000EB7E
:101B60000A1031688900B0FBF1F86420B8FBF0F08E
:101B700004012009642101FB1089A88900F40040B8
:101B800040B1322000EBC900B0FBF1F000F00700DB
:101B9000044308E0322000EB09106421B0FBF1F0AF
:101BA00000F00F0004432C8106B0BDE8F087000070
:101BB0000038014001468888C0F308007047C1F32F
:101BC00008028280704700BFFEE700000FB4054B9B
:101BD00010B503A9044A029800F046F910BC5DF85C
:101BE00014FB0000ED260008180000202DE9F0414C
:101BF0004F1E00EBC7010446D1E9000115461E4601
:101C000037F006020DD02A463346FEF7B1FB7F1EA1
:101C100004EBC703D3E90023FEF77AFD37F0060291
:101C2000F1D1022F25D0042F13D0062F18BFBDE805
:101C3000F0812A463346FEF79BFBD4E90A23FEF7E0
:101C400067FD2A463346FEF793FBD4E90823FEF7E7
:101C50005FFD2A463346FEF78BFBD4E90623FEF7E9
:101C600057FD2A463346FEF783FBD4E90423FEF7EB
:101C70004FFD2A463346FEF77BFBD4E90223FEF7ED
:101C800047FD2A463346FEF773FBD4E90023BDE83F
:101C9000F041FEF73DBD0000002213461046014909
:101CA000FEF7DDBD0000F03F0122FEF747BE002237
:101CB000134610461146FEF7D2BD02E008C8121FB7
:101CC00008C1002AFAD170477047002001E001C125
:101CD000121F002AFBD170470149086070470000BD
:101CE0001C0000202DE9FF5F82B00021DDE90430F7
:101CF000020DDDF840B0034318D044F61050A2F2B4
:101D0000FF3242431514119801281FD0A5EB0B0098
:101D1000401C5FEA000A4FF000064E4FDFF8389192
:101D2000B046504615D5CAF1000413E011980124BD
:101D30004AA3012801D16FEA0B010298119AC0E968
:101D40000031C0E9024206B0BDE8F09FCBF10000CF
:101D5000DFE704460021404A491842EB0450CDE930
:101D6000001012E0E00707D032463B4640464946A5
:101D7000FEF7FEFA8046894632463B461046194633
:101D8000FEF7F6FA06460F466410002CEAD1DDE9AC
:101D90000401DDE90023BAF1000F06DAFEF7E8FAE4
:101DA00042464B46FEF7E4FA05E0FEF758FD424690
:101DB0004B46FEF754FD04460E460022284BFEF724
:101DC000FDFD03D84FF0FF30014607E00022254B10
:101DD00020463146FEF79CFCFEF7D8FD102409E0B2
:101DE000002C0ADB0A220023FEF7A4FB039B3032FF
:101DF0001A55641E50EA0102F2D1641C039AC4F120
:101E000011031444119A012A03D0012208430DD171
:101E10000AE0084304D000204FF0110B119072E744
:101E2000A3EB0B056D1E0DE05B4504DD4FF00002DA
:101E300005F1010504E003DA4FF00002A5F1010508
:101E4000002AECD002981199C0E90231C0E900459E
:101E500079E70000000014400000F03F300000006F
:101E60000000F0430000E03F2DE9FF4F95B09B4696
:101E70008946064600250FE2252877D1002427460B
:101E8000F84A0121059400E0044316F8013F203B85
:101E900001FA03F01042F7D130782A2811D06FF000
:101EA0002F033078A0F13002092A16D8059A44F0A1
:101EB000020402EB820203EB42021044761C0590FE
:101EC000EFE759F8042B0592002A03DA504244F454
:101ED0000054059044F00204761C30782E2816D168
:101EE00016F8010F44F004042A280DD06FF02F02D9
:101EF0003078A0F13003092B09D807EB870302EBF8
:101F00004303C718761CF3E759F8047B761C307836
:101F10006C280FD006DC4C2817D068280DD06A2812
:101F200014D104E0742810D07A280FD10DE044F4C5
:101F300000140AE044F4801401E044F44014727880
:101F4000824202D104F58014761C761C3078662813
:101F50000BD013DC582877D009DC002875D0452831
:101F6000F6D04628F4D047281AD19DE118E063281E
:101F700035D0642879D0652812D195E1702873D0C6
:101F800008DC6728F1D069286FD06E280DD06F2843
:101F900006D1B5E073282CD0752875D0782874D078
:101FA0005A46179990476D1C75E1C4F302500228F8
:101FB00009D003280DD0D9F8001004280DD00D60E9
:101FC00009F1040967E1D9F80010EA17C1E90052E4
:101FD000F6E7D9F800100D80F2E70D70F0E719F878
:101FE000041B8DF8001000208DF80100EA46012046
:101FF00003E059F804AB4FF0FF3061074FF00001E8
:1020000002D40DE008F101018846B9420FDA80459B
:10201000F8DB1AF808100029F4D108E008F10101F2
:1020200088468142FADB1AF808100029F6D1059893
:102030005B46A0EB080721463846179A00F094FA51
:10204000284400EB080507E04DE029E10DE01AF80F
:10205000010B5A4617999047B8F10108F7D25B4631
:1020600021463846179A13E142E00A220092C4F34F
:1020700002524FF0000A022A08D059F804CB032A72
:102080004FEAEC710AD00DE029E02AE009F10701DE
:1020900021F00702F2E802C1914609E00FFA8CFC38
:1020A0004FEAEC71042A03D14FFA8CFC4FEAEC7131
:1020B000002907DA0A460021DCF1000C61EB02017D
:1020C0002D2202E0220504D52B228DF804200122C6
:1020D00003E0E20701D02022F7E7904659E00A2109
:1020E00002E010220DE010214FF0000A00910BE0F9
:1020F00010224FF0000A44F004040827009203E085
:1021000008224FF0000A0092C4F30252022A05D0BE
:1021100059F804CB0021032A08D009E009F107018E
:1021200021F00702F2E802C1914605E01FFA8CFC9B
:10213000042A01D10CF0FF0C4FF00008220728D52B
:10214000702806D0009B83F0100353EA0A0305D0E1
:102150000EE040228DF80420012208E05CEA010232
:1021600006D030228DF804208DF80500022290461A
:10217000009B83F0080353EA0A030AD15CEA0102D8
:1021800001D1620705D530228DF804204FF00108F7
:102190007F1E582804D034A003900EA802900DE0B2
:1021A00036A0F9E753466046009AFEF7C3F9844625
:1021B0000398825C0298401E029002705CEA010063
:1021C000F0D1029806A9081A00F1200A600702D58A
:1021D00024F4803400E00127574502DDA7EB0A0014
:1021E00000E0002000EB0A01009005984144401AED
:1021F0000590E00306D45B462146179A059800F047
:10220000B3F90544002706E001A85A46C05D1799B6
:1022100090476D1C7F1C4745F6DBE0030CD55B4601
:102220002146179A059800F09FF9054404E03020F4
:102230005A46179990476D1C0099481E0090002936
:10224000F5DC08E0029802995A460078491C029190
:10225000179990476D1CBAF10001AAF1010AF1DC4F
:1022600065E100000928010030313233343536375A
:1022700038396162636465660000000030313233D2
:102280003435363738394142434445460000000072
:1022900000F058F90544761C307800287FF4ECAD46
:1022A00019B02846BDE8F08F620700D4062709F16F
:1022B000070222F0070CFCE80223E14603F0004885
:1022C0005FEA080C02D00FF2702C0DE05FEA045CAC
:1022D00002D50FF2682C07E05FEAC47C02D00FF24F
:1022E000602C01E0AFF2700C4FF0FF3823F0004398
:1022F000CDF850C065280CD006DC452809D046280A
:102300001DD047283DD13DE0662818D067287ED1F2
:1023100038E00021112F01DB112000E0781CCDE90D
:10232000000106A90EA8FFF7DDFCDDE90F010E9AFA
:1023300003910021009207F1010A04914DE04FF052
:1023400000400097CDE9011006A90EA8FFF7CAFCCE
:10235000DDE90F0203920E9B11990022DDF80CA01B
:102360000093049211B9791C00EB010AB7EB0A0043
:1023700004D4C0F1FF3007F1010A0490AAEB070072
:10238000019044E0012F00DA01270021112F01DD27
:10239000112000E03846CDE9000106A90EA8FFF79C
:1023A000A1FCDDE90F010E9A039100210491009236
:1023B000BA4621070CD40399514500DA8A46BAF18E
:1023C000010F05DD009AAAF10101515C302908D006
:1023D000B84202DA10F1040F06DA0121CDE901104A
:1023E00015E0AAF10101E9E7002805DC04990144A0
:1023F0000491AAEB000102E0411C514500DD8A4630
:102400000499401A401C01904FF0004002902007B0
:1024100004D40198504501DBCDF8048000208DF8EC
:102420004F0002980DF14F07B0F1004F25D02B203F
:102430000E9002984FF0020800280CDA40420290F9
:102440002D200E9007E00A210298FEF75DF830314A
:10245000029007F8011DB8F10001A8F10108F2DCB3
:1024600002980028EFD1791E0E980870307800F09D
:10247000200040F0450007F8020D12A8C01B00F133
:1024800007081498007800B1012000EB0A010198B8
:1024900001EBE07105984144401A401E0590E003AD
:1024A00006D45B462146179A059800F05DF805446E
:1024B0001498007818B15A46179990476D1CE0039C
:1024C00024D55B462146179A059800F04DF805443F
:1024D0001CE00498002807DBDDE90301884203DDE6
:1024E0000098405C179901E0179930205A469047B0
:1024F000049805F10105401C04900198401E0190CC
:1025000004D12E205A46179990476D1CBAF100014C
:10251000AAF1010ADDDC05E017F8010B5A4617990C
:1025200090476D1CB8F10001A8F10108F4DC5B468E
:102530002146179A0598ABE62D0000002B000000FD
:10254000200000002DE9F041044600251E461746F4
:10255000880404D405E039462020B0476D1C641E71
:10256000F9D52846BDE8F0812DE9F0410446002563
:102570001E469046C80301D5302700E02027880476
:1025800004D505E041463846B0476D1C641EF9D5B8
:102590002846BDE8F081000010B50446082C15D28D
:1025A000DFE804F00415263748596A7B01214648C4
:1025B000FEF77DFF02214448FEF777FF04214248E1
:1025C000FEF773FF08214048FEF76FFF76E0012118
:1025D0003D48FEF76CFF02213B48FEF768FF0421EF
:1025E0003948FEF762FF08213748FEF75EFF65E0D5
:1025F00001213548FEF759FF02213348FEF757FF06
:1026000004213148FEF751FF08212F48FEF74DFF06
:1026100054E001212C48FEF748FF02212A48FEF72A
:1026200046FF04212848FEF742FF08212648FEF70E
:102630003CFF43E001212448FEF737FF02212248F6
:10264000FEF733FF04212048FEF731FF08211E4822
:10265000FEF72BFF32E001211B48FEF726FF022187
:102660001948FEF722FF04211748FEF720FF082132
:102670001548FEF71CFF21E001211348FEF715FF66
:1026800002211148FEF711FF04210F48FEF70DFF4C
:1026900008210D48FEF70BFF10E001210A48FEF764
:1026A00006FF02210848FEF700FF04210648FEF756
:1026B000FCFE08210448FEF7FAFE00BF00BF42F20C
:1026C0001070FEF760FE10BD0008014010B5044612
:1026D00000BF20210448FFF7F3F90028F9D0024891
:1026E000FFF768FA10BD00000048004070B50446CE
:1026F0000D46E1B20548FFF762FA00BF80210348AA
:10270000FFF7DEF90028F9D0204670BD00480040F0
:1027100010B54FF480500B49086000F03DF84FF4BD
:1027200000500849091F086000F036F84FF40050C7
:102730000449086000F030F84FF480500149091F47
:10274000086010BD140C014008B501210820FEF7F7
:1027500097FF4FF44050ADF8000003208DF80200C1
:1027600014208DF8030069460248FEF713FE00F0BE
:102770009FF808BD000C014070B50446FFF7E4FF68
:1027800000F07CF8204600F04BF800F0A3F8054676
:1027900000F08EF8284670BD002001E0411CC8B250
:1027A0000A28FBDB7047000010B54FF48050094940
:1027B0000860FFF7F1FF4FF4005006490860FFF78B
:1027C000EBFF4FF400500349091D0860FFF7E4FFD9
:1027D00010BD0000100C014070B50024002518E069
:1027E0006006040E4FF400500C490860FFF7D4FF58
:1027F0000A480838006800F4805008B1601CC4B270
:102800004FF400500549091D0860FFF7C5FF681C1B
:10281000C5B2082DE4DB204670BD0000100C01405D
:1028200070B50446002524E004F0800020B14FF488
:1028300080501149086004E04FF480500E49091D92
:102840000860FFF7A9FF4FF400500B490860FFF73D
:10285000A3FF4FF400500849091D0860072D02D15D
:102860004010091F08606006040EFFF795FF681C02
:10287000C5B2082DD8DB70BD100C014010B54FF467
:1028800080500A49086040000860FFF785FF4FF458
:1028900080500649091D0860FFF77EFF4FF4005085
:1028A0000249091D0860FFF777FF10BD100C0140B9
:1028B00010B54FF48050064908604000091F0860B9
:1028C000FFF76AFF4FF480500149091F086010BDEF
:1028D000140C014010B54FF480500E490860FFF70A
:1028E0005BFF4FF400500B490860FFF755FF0948A4
:1028F0000838006800F4805008B1012400E000248A
:102900004FF400500349091D0860FFF745FF2046BA
:1029100010BD0000100C014010B54FF480500B4961
:10292000086000F03DF84FF400500849091F0860A6
:1029300000F036F84FF400500449086000F030F819
:102940004FF480500149091F086010BD140C01406C
:1029500008B501210820FEF793FE4FF44050ADF872
:10296000000003208DF8020014208DF80300694652
:102970000248FEF70FFD00F09FF808BD000C014073
:1029800070B50446FFF7E4FF00F07CF8204600F045
:102990004BF800F0A3F8054600F08EF8284670BD0D
:1029A000002001E0411CC8B20A28FBDB7047000090
:1029B00010B54FF4805009490860FFF7F1FF4FF45C
:1029C000005006490860FFF7EBFF4FF40050034941
:1029D000091D0860FFF7E4FF10BD0000100C014066
:1029E00070B50024002518E06006040E4FF4005076
:1029F0000C490860FFF7D4FF0A480838006800F463
:102A0000805008B1601CC4B24FF400500549091D44
:102A10000860FFF7C5FF681CC5B2082DE4DB20463F
:102A200070BD0000100C014070B50446002524E084
:102A300004F0800020B14FF480501149086004E098
:102A40004FF480500E49091D0860FFF7A9FF4FF4AD
:102A500000500B490860FFF7A3FF4FF400500849EE
:102A6000091D0860072D02D14010091F086060068B
:102A7000040EFFF795FF681CC5B2082DD8DB70BDAA
:102A8000100C014010B54FF480500A490860400016
:102A90000860FFF785FF4FF480500649091D086064
:102AA000FFF77EFF4FF400500249091D0860FFF751
:102AB00077FF10BD100C014010B54FF4805006494F
:102AC00008604000091F0860FFF76AFF4FF480505C
:102AD0000149091F086010BD140C014010B54FF4E6
:102AE00080500E490860FFF75BFF4FF400500B4920
:102AF0000860FFF755FF09480838006800F4805067
:102B000008B1012400E000244FF400500349091DDE
:102B10000860FFF745FF204610BD0000100C014083
:102B200010B54FF480400B49086000F03DF84FF4B9
:102B300000400849091F086000F036F84FF40040D3
:102B40000449086000F030F84FF480400149091F43
:102B5000086010BD140C014008B501210820FEF7E3
:102B60008FFD4FF44040ADF8000003208DF80200C7
:102B700014208DF8030069460248FEF70BFC00F0B4
:102B80009FF808BD000C014070B50446FFF7E4FF54
:102B900000F07CF8204600F04BF800F0A3F8054662
:102BA00000F08EF8284670BD002001E0411CC8B23C
:102BB0000A28FBDB7047000010B54FF4804009493C
:102BC0000860FFF7F1FF4FF4004006490860FFF787
:102BD000EBFF4FF400400349091D0860FFF7E4FFD5
:102BE00010BD0000100C014070B50024002518E055
:102BF0006006040E4FF400400C490860FFF7D4FF54
:102C00000A480838006800F4804008B1601CC4B26B
:102C10004FF400400549091D0860FFF7C5FF681C17
:102C2000C5B2082DE4DB204670BD0000100C014049
:102C300070B50446002524E004F0800020B14FF474
:102C400080401149086004E04FF480400E49091D9E
:102C50000860FFF7A9FF4FF400400B490860FFF739
:102C6000A3FF4FF400400849091D0860072D02D159
:102C70004010091F08606006040EFFF795FF681CEE
:102C8000C5B2082DD8DB70BD100C014010B54FF453
:102C900080400A49086040000860FFF785FF4FF454
:102CA00080400649091D0860FFF77EFF4FF4004091
:102CB0000249091D0860FFF777FF10BD100C0140A5
:102CC00010B54FF48040064908604000091F0860B5
:102CD000FFF76AFF4FF480400149091F086010BDEB
:102CE000140C014010B54FF480400E490860FFF706
:102CF0005BFF4FF400400B490860FFF755FF0948A0
:102D00000838006800F4804008B1012400E0002485
:102D10004FF400400349091D0860FFF745FF2046B6
:102D200010BD0000100C014010B54FF480400B495D
:102D3000086000F03DF84FF400400849091F0860A2
:102D400000F036F84FF400400449086000F030F815
:102D50004FF480400149091F086010BD140C014068
:102D600008B501210820FEF78BFC4FF44040ADF878
:102D7000000003208DF8020014208DF8030069463E
:102D80000248FEF707FB00F09FF808BD000C014069
:102D900070B50446FFF7E4FF00F07CF8204600F031
:102DA0004BF800F0A3F8054600F08EF8284670BDF9
:102DB000002001E0411CC8B20A28FBDB704700007C
:102DC00010B54FF4804009490860FFF7F1FF4FF458
:102DD000004006490860FFF7EBFF4FF4004003494D
:102DE000091D0860FFF7E4FF10BD0000100C014052
:102DF00070B50024002518E06006040E4FF4004072
:102E00000C490860FFF7D4FF0A480838006800F44E
:102E1000804008B1601CC4B24FF400400549091D50
:102E20000860FFF7C5FF681CC5B2082DE4DB20462B
:102E300070BD0000100C014070B50446002524E070
:102E400004F0800020B14FF480401149086004E094
:102E50004FF480400E49091D0860FFF7A9FF4FF4A9
:102E600000400B490860FFF7A3FF4FF400400849FA
:102E7000091D0860072D02D14010091F0860600677
:102E8000040EFFF795FF681CC5B2082DD8DB70BD96
:102E9000100C014010B54FF480400A490860400012
:102EA0000860FFF785FF4FF480400649091D086060
:102EB000FFF77EFF4FF400400249091D0860FFF74D
:102EC00077FF10BD100C014010B54FF4804006494B
:102ED00008604000091F0860FFF76AFF4FF4804058
:102EE0000149091F086010BD140C014010B54FF4D2
:102EF00080400E490860FFF75BFF4FF400400B492C
:102F00000860FFF755FF09480838006800F4804062
:102F100008B1012400E000244FF400400349091DDA
:102F20000860FFF745FF204610BD0000100C01406F
:102F300010B54FF480700B49086000F03DF84FF475
:102F400000700849091F086000F036F84FF400705F
:102F50000449086000F030F84FF480700149091FFF
:102F6000086010BD1408014008B501210420FEF7D7
:102F700087FB4FF44070ADF8000003208DF802008D
:102F800014208DF8030069460248FEF703FA00F0AA
:102F90009FF808BD0008014070B50446FFF7E4FF44
:102FA00000F07CF8204600F04BF800F0A3F805464E
:102FB00000F08EF8284670BD002001E0411CC8B228
:102FC0000A28FBDB7047000010B54FF480700949F8
:102FD0000860FFF7F1FF4FF4007006490860FFF743
:102FE000EBFF4FF400700349091D0860FFF7E4FF91
:102FF00010BD00001008014070B50024002518E045
:103000006006040E4FF400700C490860FFF7D4FF0F
:103010000A480838006800F4807008B1601CC4B227
:103020004FF400700549091D0860FFF7C5FF681CD3
:10303000C5B2082DE4DB204670BD00001008014039
:1030400070B50446002524E004F0800020B14FF460
:1030500080701149086004E04FF480700E49091D2A
:103060000860FFF7A9FF4FF400700B490860FFF7F5
:10307000A3FF4FF400700849091D0860072D02D115
:103080004010091F08606006040EFFF795FF681CDA
:10309000C5B2082DD8DB70BD1008014010B54FF443
:1030A00080700A49086040000860FFF785FF4FF410
:1030B00080700649091D0860FFF77EFF4FF400701D
:1030C0000249091D0860FFF777FF10BD1008014095
:1030D00010B54FF48070064908604000091F086071
:1030E000FFF76AFF4FF480700149091F086010BDA7
:1030F0001408014010B54FF480700E490860FFF7C6
:103100005BFF4FF400700B490860FFF755FF09485B
:103110000838006800F4807008B1012400E0002441
:103120004FF400700349091D0860FFF745FF204672
:1031300010BD00001008014010B54FF480700B491D
:10314000086000F03DF84FF400700849091F08605E
:1031500000F036F84FF400700449086000F030F8D1
:103160004FF480700149091F086010BD1408014028
:1031700008B501210420FEF783FA4FF44070ADF842
:10318000000003208DF8020014208DF8030069462A
:103190000248FEF7FFF800F09FF808BD0008014064
:1031A00070B50446FFF7E4FF00F07CF8204600F01D
:1031B0004BF800F0A3F8054600F08EF8284670BDE5
:1031C000002001E0411CC8B20A28FBDB7047000068
:1031D00010B54FF4807009490860FFF7F1FF4FF414
:1031E000007006490860FFF7EBFF4FF400700349D9
:1031F000091D0860FFF7E4FF10BD00001008014042
:1032000070B50024002518E06006040E4FF400702D
:103210000C490860FFF7D4FF0A480838006800F43A
:10322000807008B1601CC4B24FF400700549091DDC
:103230000860FFF7C5FF681CC5B2082DE4DB204617
:1032400070BD00001008014070B50446002524E060
:1032500004F0800020B14FF480701149086004E050
:103260004FF480700E49091D0860FFF7A9FF4FF465
:1032700000700B490860FFF7A3FF4FF40070084986
:10328000091D0860072D02D14010091F0860600663
:10329000040EFFF795FF681CC5B2082DD8DB70BD82
:1032A0001008014010B54FF480700A4908604000D2
:1032B0000860FFF785FF4FF480700649091D08601C
:1032C000FFF77EFF4FF400700249091D0860FFF709
:1032D00077FF10BD1008014010B54FF4807006490B
:1032E00008604000091F0860FFF76AFF4FF4807014
:1032F0000149091F086010BD1408014010B54FF4C2
:1033000080700E490860FFF75BFF4FF400700B49B7
:103310000860FFF755FF09480838006800F480701E
:1033200008B1012400E000244FF400700349091D96
:103330000860FFF745FF204610BD0000100801405F
:1033400010B54FF480600B49086000F03DF84FF471
:1033500000600849091F086000F036F84FF400606B
:103360000449086000F030F84FF480600149091FFB
:10337000086010BD1408014008B501210420FEF7C3
:103380007FF94FF44060ADF8000003208DF8020093
:1033900014208DF8030069460248FDF7FBFF00F09A
:1033A0009FF808BD0008014070B50446FFF7E4FF30
:1033B00000F07CF8204600F04BF800F0A3F805463A
:1033C00000F08EF8284670BD002001E0411CC8B214
:1033D0000A28FBDB7047000010B54FF480600949F4
:1033E0000860FFF7F1FF4FF4006006490860FFF73F
:1033F000EBFF4FF400600349091D0860FFF7E4FF8D
:1034000010BD00001008014070B50024002518E030
:103410006006040E4FF400600C490860FFF7D4FF0B
:103420000A480838006800F4806008B1601CC4B223
:103430004FF400600549091D0860FFF7C5FF681CCF
:10344000C5B2082DE4DB204670BD00001008014025
:1034500070B50446002524E004F0800020B14FF44C
:1034600080601149086004E04FF480600E49091D36
:103470000860FFF7A9FF4FF400600B490860FFF7F1
:10348000A3FF4FF400600849091D0860072D02D111
:103490004010091F08606006040EFFF795FF681CC6
:1034A000C5B2082DD8DB70BD1008014010B54FF42F
:1034B00080600A49086040000860FFF785FF4FF40C
:1034C00080600649091D0860FFF77EFF4FF4006029
:1034D0000249091D0860FFF777FF10BD1008014081
:1034E00010B54FF48060064908604000091F08606D
:1034F000FFF76AFF4FF480600149091F086010BDA3
:103500001408014010B54FF480600E490860FFF7C1
:103510005BFF4FF400600B490860FFF755FF094857
:103520000838006800F4806008B1012400E000243D
:103530004FF400600349091D0860FFF745FF20466E
:1035400010BD00001008014010B54FF480600B4919
:10355000086000F03DF84FF400600849091F08605A
:1035600000F036F84FF400600449086000F030F8CD
:103570004FF480600149091F086010BD1408014024
:1035800008B501210420FEF77BF84FF44060ADF848
:10359000000003208DF8020014208DF80300694616
:1035A0000248FDF7F7FE00F09FF808BD0008014053
:1035B00070B50446FFF7E4FF00F07CF8204600F009
:1035C0004BF800F0A3F8054600F08EF8284670BDD1
:1035D000002001E0411CC8B20A28FBDB7047000054
:1035E00010B54FF4806009490860FFF7F1FF4FF410
:1035F000006006490860FFF7EBFF4FF400600349E5
:10360000091D0860FFF7E4FF10BD0000100801402D
:1036100070B50024002518E06006040E4FF4006029
:103620000C490860FFF7D4FF0A480838006800F426
:10363000806008B1601CC4B24FF400600549091DE8
:103640000860FFF7C5FF681CC5B2082DE4DB204603
:1036500070BD00001008014070B50446002524E04C
:1036600004F0800020B14FF480601149086004E04C
:103670004FF480600E49091D0860FFF7A9FF4FF461
:1036800000600B490860FFF7A3FF4FF40060084992
:10369000091D0860072D02D14010091F086060064F
:1036A000040EFFF795FF681CC5B2082DD8DB70BD6E
:1036B0001008014010B54FF480600A4908604000CE
:1036C0000860FFF785FF4FF480600649091D086018
:1036D000FFF77EFF4FF400600249091D0860FFF705
:1036E00077FF10BD1008014010B54FF48060064907
:1036F00008604000091F0860FFF76AFF4FF4806010
:103700000149091F086010BD1408014010B54FF4AD
:1037100080600E490860FFF75BFF4FF400600B49C3
:103720000860FFF755FF09480838006800F480601A
:1037300008B1012400E000244FF400600349091D92
:103740000860FFF745FF204610BD0000100801404B
:1037500010B501214FF41660FEF782F810BD00008D
:103760002DE9F04DC84A002490B0914205DA21F0CD
:103770000043934201D805D120B110B0BDE8F04D0F
:10378000FEF792BAB1F5801F1BDA53EA000209D0A6
:10379000002911DA0120FEF79FFA10B0BDE8F04DC4
:1037A000FEF785BA0220FEF797FAFEF775FA10B019
:1037B00081F00041BDE8F08D6FF035043622FDF751
:1037C000BDF804EB2152C1F31308B049A2F2FF3354
:1037D000414401F4801282F07F6103EB225281F0B8
:1037E0004051009241EA08010022A94BFDF731F84F
:1037F000044608F10200A74EC0F313000D467E44B4
:10380000032867D2D6E900232046FDF74DF91ED1E3
:103810000098002802BFD6E9000110B0BDE8F08D85
:10382000FDF7A3F807460C469B4A9C4BFCF7A0FD0E
:1038300006460D469A4A9B4B38462146FCF798FDB2
:1038400010B032462B46BDE8F04DFCF761BF4FF09B
:103850005532954B20462946FCF78AFD0022934BB2
:10386000FCF7FAFF06460F4622462B46104619463D
:10387000FCF77EFD32463B46FCF77AFD0646009893
:103880000F46F0B1FDF771F880468A46824A834BB5
:10389000FCF76EFD32463B46FCF7DEFF22462B4628
:1038A000FCF7D7FF05460C467D4A7E4B4046514605
:1038B000FCF75EFD10B02A462346BDE8F04DFCF74C
:1038C000C8BF0B4610B0324620462946BDE8F04D31
:1038D000FCF7BFBF00224FF080432046FCF718FFE3
:1038E00002460B4620462946FCF7B9FF06460F461E
:1038F0000098FDF73AF8CDE9040132463B46104600
:103900003946FCF735FD0C9069480C9A404401900B
:1039100009910B461046FCF72BFD8246024665488E
:103920008B46C8F151080B4608F5D7280321784487
:10393000FEF75CF952465B46FCF71AFD0A905E48BA
:103940000D9152465B4604217844FEF74FF9099BDE
:103950000C9AFCF70DFD844601980D9B40EA08087F
:1039600060460A9AFCF7D4FE83460891B8F1000F2E
:103970004EDD4FF0FF3220462946FCF7DFFF22469E
:103980002B46FCF7F5FC804600988A4660B3DDE9DB
:103990000401414A414BFCF7EBFC099100905A4667
:1039A00040465146089BFCF7B3FE32463B46FCF7C7
:1039B000DFFC099B009AFCF7ABFE42465346FCF73E
:1039C0004BFF22462B46FCF744FF04460D46DDE93B
:1039D0000401334A334BFCF7CBFC10B022462B4694
:1039E000BDE8F04DFCF735BF5A464046089BFCF752
:1039F0008FFE32463B46FCF7BBFC42465346FCF783
:103A00002BFF10B022462B46BDE8F04DFCF724BF3B
:103A1000009840B3DDE904011F4A204BFCF7A8FCE5
:103A200080468A465A4620462946089BFCF711FFE5
:103A300032463B46FCF79CFC42465346FCF709FFE6
:103A400022462B46FCF705FF04460D46DDE904013E
:103A5000134A144BFCF78CFC10B022462B46BDE8F1
:103A6000F04DFCF7F6BE0B465A4620462946FCF7B9
:103A7000F0FE32463B46FCF77BFC10B022462B465C
:103A8000BDE8F04DFCF7E8BE0000F07F645F090080
:103A90000000F03FD6200000763C7935EF39EA3D52
:103AA0000000E0FE422EE63F5555D53F0000E03FC6
:103AB00086EBF9FF6E1F00006C1F00002DE9F0413E
:103AC000044630480025814205DA21F00042824256
:103AD00001D805D124B12046BDE8F041FEF7E4B895
:103AE000B1F5801F1BDA52EA040008D000290FDA72
:103AF0000120FEF7F1F8BDE8F041FEF7D8B802204A
:103B0000FEF7EAF8FEF7C8F881F00041BDE8F08161
:103B10006FF0350536222046FCF710FF044605EB12
:103B20002150A0F2FF32D00F40F2FF331B1A0D4696
:103B300063F31F551044FCF718FF06460F4629464D
:103B40002046FFF70DFE104A104BFCF711FC04460F
:103B50000D460F4A0F4B30463946FCF709FC22460A
:103B60002B46FCF7D5FD05460C460B4A0B4B304661
:103B70003946FCF7FDFB2A462346BDE8F041FCF739
:103B8000C7BD00000000F07F0EE526157BCBDB3FB4
:103B9000362BF111F3FE593D00609F501344D33F83
:103BA00008B5FDF79FFCFDF787FCFDF749FF3FE0F7
:103BB00020A0FEF70BF82348FEF708F8694622A07C
:103BC000FCF7B0FA20A00099FEF700F800980B2847
:103BD00028D2DFE800F006090C0F1215181B1E2171
:103BE000240001F019FD21E001F01AFC1EE001F0B3
:103BF00095FC1BE000F038F818E000F05FFA15E0E3
:103C000001F0F4F812E000F0FBFC0FE0FFF7A0FD7C
:103C10000CE000F021F809E0FDF784FC06E0FDF778
:103C200077FC03E009A0FDF7D1FF00BF00BF00BF94
:103C3000BEE70000C7EBD1A1D4F1B2D9D7F73A0A59
:103C400000000000505B000825640A00CEDED0A70B
:103C5000B2D9D7F70000000010B500214FF416606C
:103C6000FDF7FEFD10BD000000B5AFB0FE48006BD3
:103C70001590FCF71AFCCDE92C01FB48C06A1590A1
:103C8000FCF713FCCDE92A01F748806A1590FCF790
:103C90000CFCCDE92801F448406A1590FCF705FCBE
:103CA000CDE92601F048006A1590FCF7FEFBCDE94E
:103CB0002401ED48C0691590FCF7F7FBCDE922011E
:103CC000E94880691590FCF7F0FBCDE92001E64852
:103CD00040691590FCF7E9FBCDE91E01E248006957
:103CE0001590FCF7E2FBCDE91C01DF48C068159098
:103CF000FCF7DBFBCDE91A01DB4880681590FCF787
:103D0000D4FBCDE91801D84840681590FCF7CDFBED
:103D1000CDE91601DDE92C01CDE91401DDE92A0127
:103D2000CDE91201DDE92801CDE91001DDE9260127
:103D3000CDE90E01DDE92401CDE90C01DDE9220127
:103D4000CDE90A01DDE92001CDE90801DDE91E0127
:103D5000CDE90601DDE91C01CDE90401DDE91A0127
:103D6000CDE90201DDE91801CDE90001BF48DDE937
:103D70001623FDF72BFFBE48006B1590FCF795FB53
:103D8000CDE92C01BA48C06A1590FCF78EFBCDE94D
:103D90002A01B748806A1590FCF787FBCDE9280116
:103DA000B348406A1590FCF780FBCDE92601B04886
:103DB000006A1590FCF779FBCDE92401AC48C06995
:103DC0001590FCF772FBCDE92201A9488069159096
:103DD000FCF76BFBCDE92001A54840691590FCF785
:103DE00064FBCDE91E01A24800691590FCF75DFB5C
:103DF000CDE91C019E48C0681590FCF756FBCDE943
:103E00001A019B4880681590FCF74FFBCDE918011B
:103E1000974840681590FCF748FBCDE91601DDE9AD
:103E20002C01CDE91401DDE92A01CDE91201DDE91A
:103E30002801CDE91001DDE92601CDE90E01DDE91A
:103E40002401CDE90C01DDE92201CDE90A01DDE91A
:103E50002001CDE90801DDE91E01CDE90601DDE91A
:103E60001C01CDE90401DDE91A01CDE90201DDE91A
:103E70001801CDE900017F48DDE91623FDF7A6FE14
:103E80007D48006B1590FCF710FBCDE92C017A48BA
:103E9000C06A1590FCF709FBCDE92A017648806AD3
:103EA0001590FCF702FBCDE928017348406A159094
:103EB000FCF7FBFACDE926016F48006A1590FCF784
:103EC000F4FACDE924016C48C0691590FCF7EDFACD
:103ED000CDE92201684880691590FCF7E6FACDE942
:103EE0002001654840691590FCF7DFFACDE91E0115
:103EF000614800691590FCF7D8FACDE91C015E48CD
:103F0000C0681590FCF7D1FACDE91A015A488068CB
:103F10001590FCF7CAFACDE918015748406815908A
:103F2000FCF7C3FACDE91601DDE92C01CDE9140156
:103F3000DDE92A01CDE91201DDE92801CDE9100111
:103F4000DDE92601CDE90E01DDE92401CDE90C0111
:103F5000DDE92201CDE90A01DDE92001CDE9080111
:103F6000DDE91E01CDE90601DDE91C01CDE9040111
:103F7000DDE91A01CDE90201DDE91801CDE9000111
:103F80003E48DDE91623FDF721FE3D48006B159004
:103F9000FCF78BFACDE92C013948C06A1590FCF783
:103FA00084FACDE92A013648806A1590FCF77DFA3B
:103FB000CDE928013248406A1590FCF776FACDE940
:103FC00026012F48006A1590FCF76FFACDE924010D
:103FD0002B48C0691590FCF768FACDE92201284802
:103FE00080691590FCF761FACDE920012448406909
:103FF0001590FCF75AFACDE91E0121480069159089
:10400000FCF753FACDE91C011D48C0681590FCF778
:104010004CFACDE91A011A4880681590FCF745FA68
:10402000CDE91801164840681590FCF73EFACDE935
:104030001601DDE92C01CDE91401DDE92A01CDE904
:104040001201DDE92801CDE91001DDE92601CDE904
:104050000E01DDE92401CDE90C01DDE92201CDE904
:104060000A01DDE920010DE08C0000202059000844
:10407000C000002064590008F4000020A85900087E
:1040800028010020CDE90801DDE91E01CDE9060186
:10409000DDE91C01CDE90401DDE91A01CDE90201E8
:1040A000DDE91801CDE900010348DDE91623FDF73C
:1040B0008DFD2FB000BD0000EC59000800B5AFB079
:1040C000FE48006B1590FCF7F0F9CDE92C01FB4898
:1040D000C06A1590FCF7E9F9CDE92A01F748806A32
:1040E0001590FCF7E2F9CDE92801F448406A1590F3
:1040F000FCF7DBF9CDE92601F048006A1590FCF7E2
:10410000D4F9CDE92401ED48C0691590FCF7CDF94B
:10411000CDE92201E94880691590FCF7C6F9CDE99F
:104120002001E64840691590FCF7BFF9CDE91E0172
:10413000E24800691590FCF7B8F9CDE91C01DF48A9
:10414000C0681590FCF7B1F9CDE91A01DB48806829
:104150001590FCF7AAF9CDE91801D84840681590E8
:10416000FCF7A3F9CDE91601DDE92C01CDE9140135
:10417000DDE92A01CDE91201DDE92801CDE91001CF
:10418000DDE92601CDE90E01DDE92401CDE90C01CF
:10419000DDE92201CDE90A01DDE92001CDE90801CF
:1041A000DDE91E01CDE90601DDE91C01CDE90401CF
:1041B000DDE91A01CDE90201DDE91801CDE90001CF
:1041C000BFA0DDE91623FDF701FDCD48006B15907A
:1041D000FCF76BF9CDE92C01C948C06A1590FCF7D2
:1041E00064F9CDE92A01C648806A1590FCF75DF9AB
:1041F000CDE92801C248406A1590FCF756F9CDE98F
:104200002601BF48006A1590FCF74FF9CDE924015B
:10421000BB48C0691590FCF748F9CDE92201B848C0
:1042200080691590FCF741F9CDE92001B448406957
:104230001590FCF73AF9CDE91E01B14800691590D7
:10424000FCF733F9CDE91C01AD48C0681590FCF7C7
:104250002CF9CDE91A01AA4880681590FCF725F9D8
:10426000CDE91801A64840681590FCF71EF9CDE984
:104270001601DDE92C01CDE91401DDE92A01CDE9C2
:104280001201DDE92801CDE91001DDE92601CDE9C2
:104290000E01DDE92401CDE90C01DDE92201CDE9C2
:1042A0000A01DDE92001CDE90801DDE91E01CDE9C2
:1042B0000601DDE91C01CDE90401DDE91A01CDE9C2
:1042C0000201DDE91801CDE900018EA0DDE9162328
:1042D000FDF77CFC9B48006B1590FCF7E6F8CDE9F8
:1042E0002C019848C06A1590FCF7DFF8CDE92A0147
:1042F0009448806A1590FCF7D8F8CDE928019148D8
:10430000406A1590FCF7D1F8CDE926018D48006A86
:104310001590FCF7CAF8CDE924018A48C0691590C8
:10432000FCF7C3F8CDE92201864880691590FCF7B7
:10433000BCF8CDE92001834840691590FCF7B5F839
:10434000CDE91E017F4800691590FCF7AEF8CDE974
:104350001C017C48C0681590FCF7A7F8CDE91A014C
:10436000784880681590FCF7A0F8CDE918017548E9
:1043700040681590FCF799F8CDE91601DDE92C01AC
:10438000CDE91401DDE92A01CDE91201DDE92801B9
:10439000CDE91001DDE92601CDE90E01DDE92401B9
:1043A000CDE90C01DDE92201CDE90A01DDE92001B9
:1043B000CDE90801DDE91E01CDE90601DDE91C01B9
:1043C000CDE90401DDE91A01CDE90201DDE91801B9
:1043D000CDE900015CA0DDE91623FDF7F7FB6A4893
:1043E000006B1590FCF761F8CDE92C016648C06AB6
:1043F0001590FCF75AF8CDE92A016348806A1590B8
:10440000FCF753F8CDE928015F48406A1590FCF7A6
:104410004CF8CDE926015C48006A1590FCF745F898
:10442000CDE924015848C0691590FCF73EF8CDE964
:104430002201554880691590FCF737F8CDE9200135
:10444000514840691590FCF730F8CDE91E014E48FF
:1044500000691590FCF729F8CDE91C014A48C068AD
:104460001590FCF722F8CDE91A01474880681590AD
:10447000FCF71BF8CDE91801434840681590FCF79C
:1044800014F8CDE91601DDE92C01CDE91401DDE9CF
:104490002A01CDE91201DDE92801CDE91001DDE9AC
:1044A0002601CDE90E01DDE92401CDE90C01DDE9AC
:1044B0002201CDE90A01DDE9200167E02C0200209C
:1044C000433A252E326620252E326620252E32666E
:1044D00020252E326620252E326620252E3266209B
:1044E000252E326620252E326620252E3266202586
:1044F0002E326620252E326620252E32660D0A00C9
:1045000060020020443A252E326620252E32662095
:10451000252E326620252E326620252E3266202555
:104520002E326620252E326620252E326620252E3C
:10453000326620252E326620252E326620252E3228
:10454000660D0A0094020020453A252E3266202589
:104550002E326620252E326620252E326620252E0C
:10456000326620252E326620252E326620252E32F8
:104570006620252E326620252E326620252E3266B4
:1045800020252E32660D0A00C8020020CDE9080160
:10459000DDE91E01CDE90601DDE91C01CDE90401DB
:1045A000DDE91A01CDE90201DDE91801CDE90001DB
:1045B00003A0DDE91623FDF709FB2FB000BD0000C5
:1045C000463A252E326620252E326620252E32666A
:1045D00020252E326620252E326620252E3266209A
:1045E000252E326620252E326620252E3266202585
:1045F0002E326620252E326620252E32660D0A00C8
:1046000000B5AFB001202D9085E1FE492D9851F8FD
:10461000200001462B90FC48FBF73AFEFB492C900A
:104620002D9851F8200001462B902C98FBF762FE44
:10463000F74A2D9942F82100F6492D9851F82000AB
:1046400001462B90F048FBF723FEF3492C902D9860
:1046500051F8200001462B902C98FBF74BFEEF4AB7
:104660002D9942F82100EE492D9851F8200001467D
:104670002B90E548FBF70CFEEA492C902D9851F859
:10468000200001462B902C98FBF734FE0146E64AA9
:104690002D9842F82010E5492D9851F82000014648
:1046A0002B90D948FBF7F4FDE1492C902D9851F857
:1046B000200001462B902C98FBF71CFEDD4A2D991B
:1046C00042F82100DC492D9851F8200001462B903A
:1046D000CD48FBF7DDFDD9492C902D9851F82000ED
:1046E00001462B902C98FBF705FED54A2D9942F8F0
:1046F0002100D4492D9851F8200001462B90C24842
:10470000FBF7C6FDD0492C902D9851F820000146AA
:104710002B902C98FBF7EEFDCC4A2D9942F8210006
:10472000CB492D9851F8200001462B90B648FBF755
:10473000AFFDC8492C902D9851F8200001462B90D0
:104740002C98FBF7D7FDC44A2D9942F82100C349A4
:104750002D9851F8200001462B90AB48FBF798FDAF
:10476000BF492C902D9851F8200001462B902C9891
:10477000FBF7C0FDBB4A2D9942F82100A4492D98B2
:1047800051F82000A0492690FBF7B4FD2790FBF7D5
:104790008CFECDE92801FFF791F981F00041CDE9C8
:1047A0002A01FBF795FEB04A2D9942F821009B495A
:1047B0002D9851F8200094492690FBF79BFD2790F7
:1047C000FBF773FECDE92801FFF778F981F000418E
:1047D000CDE92A01FBF77CFEA44A2D9942F821007D
:1047E00091492D9851F8200087492690FBF782FDCA
:1047F0002790FBF75AFECDE92801FFF75FF981F01A
:104800000041CDE92A01FBF763FE994A2D9942F850
:10481000210088492D9851F820007B492690FBF70C
:1048200069FD2790FBF741FECDE92801FFF746F926
:1048300081F00041CDE92A01FBF74AFE8D4A2D990E
:1048400042F821007E492D9851F820006E492690AB
:10485000FBF750FD2790FBF728FECDE92801FFF775
:104860002DF981F00041CDE92A01FBF731FE014627
:10487000814A2D9842F8201074492D9851F8200053
:1048800061492690FBF736FD2790FBF70EFECDE938
:104890002801FFF713F981F00041CDE92A01FBF768
:1048A00017FE764A2D9942F821006B492D9851F850
:1048B000200055492690FBF71DFD2790FBF7F5FDDD
:1048C000CDE92801FFF7FAF881F00041CDE92A018E
:1048D000FBF7FEFD6A4A2D9942F8210061492D98A7
:1048E00051F8200048492690FBF704FD2790FBF77C
:1048F000DCFDCDE92801FFF7E1F881F00041CDE9C9
:104900002A01FBF7E5FD5F4A2D9942F821002D9819
:10491000401CC0B22D902D980D28FFF676AE54485D
:10492000006B1590FBF7C1FDCDE92C015048C06A22
:104930001590FBF7BAFDCDE92A014D48806A159024
:10494000FBF7B3FDCDE928014948406A1590FBF714
:10495000ACFDCDE926014648006A1590FBF7A5FDA0
:10496000CDE924014248C0691590FBF79EFDCDE9D1
:1049700022013F4880691590FBF797FDCDE92001A2
:104980003B4840691590FBF790FDCDE91E01384882
:1049900000691590FBF789FDCDE91C013448C0681A
:1049A0001590FBF782FDCDE91A013148806815901A
:1049B000FBF77BFDCDE918012D4840681590FBF70A
:1049C00074FDCDE91601DDE92C01CDE91401DDE925
:1049D0002A01CDE91201DDE92801CDE91001DDE967
:1049E0002601CDE90E01DDE92401CDE90C01DDE967
:1049F0002201CDE90A01DDE92001CDE90801DDE967
:104A00001E0141E0C40100200000C8422400002033
:104A100064030020F80100205800002098030020C3
:104A20002C0200208C000020CC030020600200201B
:104A3000C00000200004002094020020F4000020A8
:104A400034040020C802002028010020680400204F
:104A5000FC0200205C0100209C04002030030020A8
:104A600090010020D004002004050020380500201B
:104A70006C050020A0050020D405002008060020B9
:104A80003C06002070060020CDE90601DDE91C018E
:104A9000CDE90401DDE91A01CDE90201DDE91801E2
:104AA000CDE90001CA48DDE91623FDF78FF8C948B2
:104AB000006B1590FBF7F9FCCDE92C01C548C06AE5
:104AC0001590FBF7F2FCCDE92A01C248806A1590E7
:104AD000FBF7EBFCCDE92801BE48406A1590FBF7D7
:104AE000E4FCCDE92601BB48006A1590FBF7DDFC2C
:104AF000CDE92401B748C0691590FBF7D6FCCDE994
:104B00002201B44880691590FBF7CFFCCDE9200164
:104B1000B04840691590FBF7C8FCCDE91E01AD48CF
:104B200000691590FBF7C1FCCDE91C01A948C068DC
:104B30001590FBF7BAFCCDE91A01A64880681590DC
:104B4000FBF7B3FCCDE91801A24840681590FBF7CC
:104B5000ACFCCDE91601DDE92C01CDE91401DDE95C
:104B60002A01CDE91201DDE92801CDE91001DDE9D5
:104B70002601CDE90E01DDE92401CDE90C01DDE9D5
:104B80002201CDE90A01DDE92001CDE90801DDE9D5
:104B90001E01CDE90601DDE91C01CDE90401DDE9D5
:104BA0001A01CDE90201DDE91801CDE900018A48C9
:104BB000DDE91623FDF70AF88848006B1590FBF72E
:104BC00074FCCDE92C018548C06A1590FBF76DFC9B
:104BD000CDE92A018148806A1590FBF766FCCDE992
:104BE00028017E48406A1590FBF75FFCCDE926015D
:104BF0007A48006A1590FBF758FCCDE92401774804
:104C0000C0691590FBF751FCCDE92201734880691A
:104C10001590FBF74AFCCDE92001704840691590DA
:104C2000FBF743FCCDE91E016C4800691590FBF7CA
:104C30003CFCCDE91C016948C0681590FBF735FCC8
:104C4000CDE91A01654880681590FBF72EFCCDE987
:104C50001801624840681590FBF727FCCDE9160162
:104C6000DDE92C01CDE91401DDE92A01CDE91201CC
:104C7000DDE92801CDE91001DDE92601CDE90E01CC
:104C8000DDE92401CDE90C01DDE92201CDE90A01CC
:104C9000DDE92001CDE90801DDE91E01CDE90601CC
:104CA000DDE91C01CDE90401DDE91A01CDE90201CC
:104CB000DDE91801CDE900014948DDE91623FCF7DB
:104CC00085FF4848006B1590FBF7EFFBCDE92C0101
:104CD0004448C06A1590FBF7E8FBCDE92A0141483A
:104CE000806A1590FBF7E1FBCDE928013D48406A59
:104CF0001590FBF7DAFBCDE926013A48006A1590DA
:104D0000FBF7D3FBCDE924013648C0691590FBF7CA
:104D1000CCFBCDE92201334880691590FBF7C5FB38
:104D2000CDE920012F4840691590FBF7BEFBCDE986
:104D30001E012C4800691590FBF7B7FBCDE91C015B
:104D40002848C0681590FBF7B0FBCDE91A0125484B
:104D500080681590FBF7A9FBCDE918012148406850
:104D60001590FBF7A2FBCDE91601DDE92C01CDE999
:104D70001401DDE92A01CDE91201DDE92801CDE9BF
:104D80001001DDE92601CDE90E01DDE92401CDE9BF
:104D90000C01DDE92201CDE90A01DDE92001CDE9BF
:104DA0000801DDE91E01CDE90601DDE91C01CDE9BF
:104DB0000401DDE91A01CDE90201DDE91801CDE9BF
:104DC00000010948DDE91623FCF700FF2FB000BD04
:104DD000305A0008A0050020785A0008D4050020A9
:104DE000C05A000808060020085B000800B5AFB0F4
:104DF00001202D90BBE0FE492D9851F8200001467E
:104E00002B90FC48FBF744FAFB492C902D9851F865
:104E1000200001462B902C98FBF76CFAF74A2D994D
:104E200042F82100F6492D9851F8200001462B90B8
:104E3000F048FBF72DFAF3492C902D9851F82000FB
:104E400001462B902C98FBF755FAEF4A2D9942F822
:104E50002100EE492D9851F8200001462B90E5489D
:104E6000FBF716FAEA492C902D9851F820000146DC
:104E70002B902C98FBF73EFAE64A2D9942F8210038
:104E8000E5492D9851F8200001462B90D948FBF7B1
:104E9000FFF9E2492C902D9851F8200001462B9003
:104EA0002C98FBF727FADE4A2D9942F82100DD49BC
:104EB0002D9851F8200001462B90CE48FBF7E8F9D9
:104EC000D9492C902D9851F8200001462B902C9810
:104ED000FBF710FAD54A2D9942F82100D4492D98B4
:104EE00051F8200001462B90C248FBF7D1F9D14977
:104EF0002C902D9851F8200001462B902C98FBF710
:104F0000F9F9CD4A2D9942F82100CC492D9851F854
:104F1000200001462B90B748FBF7BAF9C8492C90FE
:104F20002D9851F8200001462B902C98FBF7E2F9C0
:104F3000C44A2D9942F82100C3492D9851F8200008
:104F400001462B90AB48FBF7A3F9C0492C902D9854
:104F500051F8200001462B902C98FBF7CBF9BC4A66
:104F60002D9942F821002D98401CC0B22D902D980B
:104F70000D28FFF640AFA748006B1590FBF795FA98
:104F8000CDE92C01A348C06A1590FBF78EFACDE954
:104F90002A01A048806A1590FBF787FACDE928011D
:104FA0009C48406A1590FBF780FACDE926019948A4
:104FB000006A1590FBF779FACDE924019548C0699C
:104FC0001590FBF772FACDE922019248806915909D
:104FD000FBF76BFACDE920018E4840691590FBF78D
:104FE00064FACDE91E018B4800691590FBF75DFA64
:104FF000CDE91C018748C0681590FBF756FACDE94A
:105000001A01844880681590FBF74FFACDE9180122
:10501000804840681590FBF748FACDE91601DDE9B4
:105020002C01CDE91401DDE92A01CDE91201DDE908
:105030002801CDE91001DDE92601CDE90E01DDE908
:105040002401CDE90C01DDE92201CDE90A01DDE908
:105050002001CDE90801DDE91E01CDE90601DDE908
:105060001C01CDE90401DDE91A01CDE90201DDE908
:105070001801CDE900017748DDE91623FCF7A6FD0C
:105080006748006B1590FBF710FACDE92C016448D6
:10509000C06A1590FBF709FACDE92A016048806AD9
:1050A0001590FBF702FACDE928015D48406A15909A
:1050B000FBF7FBF9CDE926015948006A1590FBF78B
:1050C000F4F9CDE924015648C0691590FBF7EDF9D4
:1050D000CDE92201524880691590FBF7E6F9CDE948
:1050E00020014F4840691590FBF7DFF9CDE91E011B
:1050F0004B4800691590FBF7D8F9CDE91C014848E9
:10510000C0681590FBF7D1F9CDE91A0144488068D1
:105110001590FBF7CAF9CDE9180141484068159090
:10512000FBF7C3F9CDE91601DDE92C01CDE9140146
:10513000DDE92A01CDE91201DDE92801CDE91001FF
:10514000DDE92601CDE90E01DDE92401CDE90C01FF
:10515000DDE92201CDE90A01DDE92001CDE90801FF
:10516000DDE91E01CDE90601DDE91C01CDE90401FF
:10517000DDE91A01CDE90201DDE91801CDE90001FF
:105180003548DDE91623FCF721FD2848006B159012
:10519000FBF78BF9CDE92C012448C06A1590FBF789
:1051A00084F9CDE92A012148806A1590FBF77DF941
:1051B000CDE928011D48406A1590FBF776F9CDE945
:1051C00026011A48006A1590FBF76FF9CDE9240112
:1051D0001648C0691590FBF768F9CDE9220113481C
:1051E00080691590FBF761F9CDE920010F4835E0A2
:1051F000C40100200000C8422400002064030020F5
:10520000F801002058000020980300202C02002004
:105210008C000020CC03002060020020C000002091
:105220000004002094020020F40000203404002038
:10523000C80200202801002068040020FC02002091
:105240005C0100209C04002030030020900100201D
:10525000D0040020205900086459000840691590C6
:10526000FBF723F9CDE91E01694800691590FBF7AA
:105270001CF9CDE91C016648C0681590FBF715F9CB
:10528000CDE91A01624880681590FBF70EF9CDE967
:1052900018015F4840681590FBF707F9CDE9160142
:1052A000DDE92C01CDE91401DDE92A01CDE9120186
:1052B000DDE92801CDE91001DDE92601CDE90E0186
:1052C000DDE92401CDE90C01DDE92201CDE90A0186
:1052D000DDE92001CDE90801DDE91E01CDE9060186
:1052E000DDE91C01CDE90401DDE91A01CDE9020186
:1052F000DDE91801CDE900014648DDE91623FCF798
:1053000065FC4548006B1590FBF7CFF8CDE92C0103
:105310004148C06A1590FBF7C8F8CDE92A013E481C
:10532000806A1590FBF7C1F8CDE928013A48406A38
:105330001590FBF7BAF8CDE926013748006A1590B9
:10534000FBF7B3F8CDE924013348C0691590FBF7AA
:10535000ACF8CDE92201304880691590FBF7A5F83B
:10536000CDE920012C4840691590FBF79EF8CDE966
:105370001E01294800691590FBF797F8CDE91C013B
:105380002548C0681590FBF790F8CDE91A0122482E
:1053900080681590FBF789F8CDE918011E48406830
:1053A0001590FBF782F8CDE91601DDE92C01CDE976
:1053B0001401DDE92A01CDE91201DDE92801CDE979
:1053C0001001DDE92601CDE90E01DDE92401CDE979
:1053D0000C01DDE92201CDE90A01DDE92001CDE979
:1053E0000801DDE91E01CDE90601DDE91C01CDE979
:1053F0000401DDE91A01CDE90201DDE91801CDE979
:1054000000010648DDE91623FCF7E0FB2FB000BDE4
:1054100034040020A859000868040020EC59000852
:1054200010B5FBF731FF4FF47A70FCF795FA0121C4
:1054300045F20820FCF714FA4FF47A70FCF78CFA66
:1054400000217820FCF70CFA0C244BE04FF4FA70A2
:10545000FCF782FAFCF770F8284941F82400642030
:10546000FCF77AFAFCF77AF8254941F82400642021
:10547000FCF772FAFCF784F8224941F82400642012
:10548000FCF76AFAFCF78EF81F4941F82400642003
:10549000FCF762FAFCF798F81C4941F824006420F4
:1054A000FCF75AFAFCF7A2F8194941F824006420E5
:1054B000FCF752FAFCF7ACF8164941F824006420D6
:1054C000FCF74AFAFCF7B6F8134941F824004FF408
:1054D000FA70FCF741FA00214FF49660FCF7C0F92E
:1054E000601EC4B2002CB1DC4FF47A70FCF734FAC1
:1054F000002141F2F810FCF7B3F910BD24000020A0
:10550000580000208C000020C0000020F400002083
:10551000280100205C0100209001002010B5FBF75D
:10552000B3FE4FF47A70FCF717FA012145F2082018
:10553000FCF796F94FF47A70FCF70EFA0021782008
:10554000FCF78EF90C244BE04FF4FA70FCF704FAE8
:10555000FBF7F2FF284941F824006420FCF7FCF92E
:10556000FBF7FCFF254941F824006420FCF7F4F91F
:10557000FCF706F8224941F824006420FCF7ECF916
:10558000FCF710F81F4941F824006420FCF7E4F907
:10559000FCF71AF81C4941F824006420FCF7DCF9F8
:1055A000FCF724F8194941F824006420FCF7D4F9E9
:1055B000FCF72EF8164941F824006420FCF7CCF9DA
:1055C000FCF738F8134941F824004FF4FA70FCF75F
:1055D000C3F900214FF49660FCF742F9601EC4B293
:1055E000002CB1DC4FF47A70FCF7B6F9002141F2DF
:1055F000F810FCF735F910BDC4010020F8010020B7
:105600002C0200206002002094020020C80200202A
:10561000FC0200203003002010B54620FDF7ACF856
:1056200018B935A0FCF7D2FA02E039A0FCF7CEFA9F
:10563000FBF71BFCB820FDF7A3F918B93AA0FCF75B
:10564000C5FA02E03EA0FCF7C1FAFBF753FC462086
:10565000FDF79AFA18B940A0FCF7B8FA02E044A0A6
:10566000FCF7B4FAFBF78BFCB820FDF791FB18B9F7
:1056700045A0FCF7ABFA02E049A0FCF7A7FAFBF75C
:10568000C3FC4620FDF788FC18B94BA0FCF79EFA36
:1056900002E04FA0FCF79AFAFBF7FBFCB820FDF7FD
:1056A0007FFD18B950A0FCF791FA02E054A0FCF776
:1056B0008DFAFBF733FD4620FDF776FE18B956A0AC
:1056C000FCF784FA02E05AA0FCF780FAFBF76BFDC6
:1056D000B820FDF76DFF18B95BA0FCF777FA02E080
:1056E0005FA0FCF773FAFBF7A3FD63A0FCF76EFA6B
:1056F00065A0FCF76BFA10BD42483137353041C91F
:10570000E8B1B8BCECB2E2B3C9B9A60D0A0000001A
:1057100042483137353041C9E8B1B8BCECB2E2CAD1
:10572000A7B0DC0D0A00000042483137353042C9CD
:10573000E8B1B8BCECB2E2B3C9B9A60D0A000000EA
:1057400042483137353042C9E8B1B8BCECB2E2CAA0
:10575000A7B0DC0D0A00000042483137353043C99C
:10576000E8B1B8BCECB2E2B3C9B9A60D0A000000BA
:1057700042483137353043C9E8B1B8BCECB2E2CA6F
:10578000A7B0DC0D0A00000042483137353044C96B
:10579000E8B1B8BCECB2E2B3C9B9A60D0A0000008A
:1057A00042483137353044C9E8B1B8BCECB2E2CA3E
:1057B000A7B0DC0D0A00000042483137353045C93A
:1057C000E8B1B8BCECB2E2B3C9B9A60D0A0000005A
:1057D00042483137353045C9E8B1B8BCECB2E2CA0D
:1057E000A7B0DC0D0A00000042483137353046C909
:1057F000E8B1B8BCECB2E2B3C9B9A60D0A0000002A
:1058000042483137353046C9E8B1B8BCECB2E2CADB
:10581000A7B0DC0D0A00000042483137353047C9D7
:10582000E8B1B8BCECB2E2B3C9B9A60D0A000000F9
:1058300042483137353047C9E8B1B8BCECB2E2CAAA
:10584000A7B0DC0D0A00000042483137353048C9A6
:10585000E8B1B8BCECB2E2B3C9B9A60D0A000000C9
:1058600042483137353048C9E8B1B8BCECB2E2CA79
:10587000A7B0DC0D0A000000C9E8B1B8D7BCB1B8C8
:10588000CDEAB1CF0D0A0000C7EBBDF8D0D0CFC232
:10589000D2BBB2BDB2D9D7F70D0A0000000000009C
:1058A00004FA97999999D93FAF788E1DC571CC3F6D
:1058B0009FC678D0099AC33F935555555555E53F36
:1058C000599322942449D23FDE03CB966446C73FC6
:1058D00044523EDF12F1C23F000000000000000011
:1058E000DDDDDDDDDCBBBBDDDDDDDDDDDDDDDDDD2D
:1058F000988888888888888877777777778888886D
:105900008555555666666666666666666668888804
:105910008333333222222222222222222228888DFD
:1059200043312D31323A252E326620252E32662023
:10593000252E326620252E326620252E3266202521
:105940002E326620252E326620252E326620252E08
:10595000326620252E326620252E326620252E32F4
:10596000660D0A0044312D31323A252E326620254B
:105970002E326620252E326620252E326620252ED8
:10598000326620252E326620252E326620252E32C4
:105990006620252E326620252E326620252E326680
:1059A00020252E32660D0A0045312D31323A252E42
:1059B000326620252E326620252E326620252E3294
:1059C0006620252E326620252E326620252E326650
:1059D00020252E326620252E326620252E32662086
:1059E000252E326620252E32660D0A0046312D31D5
:1059F000323A252E326620252E326620252E32663A
:105A000020252E326620252E326620252E32662055
:105A1000252E326620252E326620252E3266202540
:105A20002E326620252E326620252E32660D0A0083
:105A30004F4443312D31323A252E336620252E3303
:105A40006620252E336620252E336620252E3366CC
:105A500020252E336620252E336620252E33662002
:105A6000252E336620252E336620252E33662025ED
:105A70002E33660D0A0000004F4444312D31323A76
:105A8000252E336620252E336620252E33662025CD
:105A90002E336620252E336620252E336620252EB4
:105AA000336620252E336620252E336620252E339F
:105AB0006620252E336620252E33660D0A00000051
:105AC0004F4445312D31323A252E336620252E3371
:105AD0006620252E336620252E336620252E33663C
