:020000040800F2
:10000000A80A00200101000819170008711500084E
:100010001517000881130008831C00080000000069
:10002000000000000000000000000000311800087F
:1000300085130008000000001B170008511A000873
:100040001B0100081B0100081B0100081B01000820
:100050001B0100081B01000895130008D1130008BC
:100060001B0100081B0100081B0100081B01000800
:100070001B0100081B0100081B0100081B010008F0
:100080001B0100081B0100081B0100081B010008E0
:100090001B0100081B0100081B0100081B010008D0
:1000A0001B0100081B0100081B0100081B010008C0
:1000B0001B0100081B0100081B0100081B010008B0
:1000C0001B0100081B0100081B0100081B010008A0
:1000D0001B0100081B0100081B0100081B01000890
:1000E0001B0100081B0100081B010008DFF80CD0F1
:1000F00000F07CFC004800475D3C0008A80A002096
:100100000648804706480047FEE7FEE7FEE7FEE7B1
:10011000FEE7FEE7FEE7FEE7FEE7FEE7551A00080A
:10012000ED0000080FB400B589B00BA800906A4636
:1001300003480A9900F04EFA09B05DF814FB00007C
:10014000180000202DE9FF5F1D464FF0FF3BD5E969
:10015000014691465F464FF00008A9697F1C01984F
:100160008847296A824688470028F6D1BAF1FF3FBE
:100170000CD024F4C064002E19DD600614D5BAF149
:100180002B0F09D0BAF12D0F0ED103E0584604B061
:10019000BDE8F09F44F48064A9697F1C01988847FA
:1001A000761E8246002E02DDBAF1300F03D0B9F17F
:1001B000000F26D032E0A969761E44F400747F1C3B
:1001C000019888478246002E05DDBAF1780F06D0E7
:1001D000BAF1580F03D0B9F1000F10D01EE0B9F1F9
:1001E000000F02D0B9F1100F18D1A969761E24F4BE
:1001F00000747F1C019888478246102002E0082086
:1002000000E00A20814609E008FB0908A969761E7A
:1002100044F400747F1C019888478246002E05DD57
:100220004946504600F0C7F90028EDDAE96901981F
:100230008847A00502D46FF00100A8E7E00725D1A8
:10024000600613D5600502D5C8F1000000E0404605
:1002500029680A1D2A600968220501D5087015E081
:10026000220701D5088011E008600FE02868011D11
:1002700029600068210502D580F8008006E021078A
:1002800002D5A0F8008001E0C0F8008038467EE783
:1002900080EA010210B502F00043400022D04A007B
:1002A0001FD0010E01EB1261C0F35600C2F35602DB
:1002B00040F4000042F40002A0FB022000047F3959
:1002C000140400D0401C50EA124001D44000491EE2
:1002D000C2B20C0604EBD010401C4008802A02D0A9
:1002E00003E0002010BD20F00100002900DA00200A
:1002F000184310BD30B480EA010202F0004530F02E
:10030000004221F0004013D090B1C30DD40DC2F3D0
:100310001601C0F31600E41A41F4000140F4000293
:100320007D34914201D3641C00E04900002C02DAC4
:1003300030BC002070474FF400000023914201D3ED
:10034000891A034340084FEA4101F7D151B1914264
:1003500002D14FF0004105E002D24FF0010101E06F
:100360006FF0010103EBC450284430BC00F03CB9ED
:100370002DE9FE4F81EA030404F0004421F000411E
:1003800000944FF0000B23F0004350EA01045ED0CC
:1003900052EA03045BD0C3F30A54C1F30A552C4458
:1003A000A4F2F3340194A0FB0254C1F3130141F40D
:1003B0008011C3F3130343F4801301FB024400FBD9
:1003C000034E840A970A44EA815447EA8357A4FB00
:1003D000076802958D0A05FB07854FEA932C04FBFD
:1003E0000C542705029D4FEA065847EA1637B5EB2D
:1003F00008056EEB070C870E920E47EA811742EA5A
:100400008312A7FB0201B6EB0B0164EB00042B0D7A
:1004100043EA0C335E1844EB1C50DA465146E7FBC6
:100420000201C5F313044FEA0B3343EA14534FEAB6
:100430000432019C43EA0603A4F10C040294009CDC
:10044000CDE900B400F016F903B0BDE8F08F00204C
:100450000146F9E796230022114600F0CEB80EB50A
:1004600040F2334102910021CDE900110A460B46CA
:1004700000F000F903B000BDC1F30A5210B5C1F39A
:10048000130140F2FF3341F480119A4201DA002057
:1004900010BD40F233439A42A2F2334203DC52428F
:1004A00000F079F810BD904010BD00F0004230F02F
:1004B00000400AD0C10D01F56071C0F3160042EA98
:1004C0000151C208400711437047002001467047A0
:1004D00001F0004330B421F0004150EA010206D09F
:1004E0000A0DA2F56072C1F31301002A02DC30BCD0
:1004F00000207047440F44EAC104C100E01830BC3A
:1005000000EBC25000F070B830B50B460146002039
:100510002022012409E021FA02F59D4205D303FAC5
:1005200002F5491B04FA02F52844151EA2F1010246
:10053000F1DC30BD2DE9F05F0546002092469B4678
:1005400088460646814640241BE0284641464746E9
:10055000224600F020F853465A46C01A914110D363
:1005600011461846224600F069FA2D1A67EB010879
:100570004F4622460120002100F060FA17EB0009E7
:100580004E41201EA4F10104DFDC484631462A46D4
:100590004346BDE8F09F202A04DB203A21FA02F00E
:1005A0000021704721FA02F3D040C2F120029140AD
:1005B0000843194670473A2800D2303820F020020C
:1005C000412A01D3A2F13700884201D34FF0FF3016
:1005D00070470000024B9361024BD36100F056BAA2
:1005E000892700082D0A00080029A8BF7047401C71
:1005F000490008BF20F00100704710B4B0FA80FC39
:1006000000FA0CF050EA010404BF10BC704749B175
:10061000CCF1200421FA04F411FA0CF118BF0121E5
:1006200021430843A3EB0C01CB1D4FEA00614FEAC5
:10063000102042BF002010BC704700EBC350104494
:100640000029A4BF10BC7047401C490008BF20F01F
:10065000010010BC704710B5141E73F1000408DAD5
:10066000401C41F1000192185B411A4301D120F076
:10067000010010BD2DE9F04D92469B4611B1B1FA33
:1006800081F202E0B0FA80F22032904600F0D6F912
:1006900004460F4640EA0A0041EA0B0153465A4617
:1006A000084313D0114653EA010019D0C8F14002A3
:1006B0005046FFF770FF05460E46504659464246E3
:1006C00000F0BCF9084305D0012004E0204639467B
:1006D000BDE8F08D0020054346EAE0762C43374321
:1006E0000A986305E40AA0EB08000022FD0A44EA28
:1006F00047540A3002D500200146E9E701051019E8
:100700006941DDE9084500196941BDE8F04DA2E7FE
:100710002DE9FE4F804681EA0300C00F0C46009091
:1007200021F0004123F00045B8EB0200A94105D2B9
:100730004046214690461C460B46024623F00040A8
:10074000104347D0270DC7F30A00C3F30A510290A4
:10075000401A019040286BDAC3F3130040F4801B69
:100760000098924620B10023D2EB030A63EB0B0BF7
:1007700001985946C0F14002504600F05FF9064624
:100780000D4650465946019A00F067F910EB0800F3
:100790006141002487EA115284EAE7731A4340D08A
:1007A000009A62B3019A012A4FEA075215DC001B36
:1007B00061EB02014FF0004202EA0752CDE900422C
:1007C000001C41F5801132462B46FFF753FF03B062
:1007D000BDE8F08F40462146F9E7001B61EB0201BE
:1007E000001C41F5801300185B412018A2F500178A
:1007F00047EB030140EAD570B6196D4111E06D0871
:100800004FEA360645EAC0754FEA0752001B61EB16
:100810000201001C41F5801149084FEA300000191F
:10082000514132462B4603B0BDE8F04FFFF713BFEE
:100830000098012240000023D0EB020263EBE0733A
:10084000009821464FEAE074B8EB000061EB040128
:10085000E9E783F000435BE781F0004158E72DE9C9
:10086000F04D81EA030404F0004B21F000451446EA
:100870004FF0000A23F0004150EA050220D054EA6C
:1008800001021DD0C5F30A570246C5F31303C1F395
:100890001300C1F30A5640F4801543F48013A7EB0C
:1008A0000608101BD64608F2FD3873EB050002D38C
:1008B00008F1010801E092185B41B8F1000F03DA7A
:1008C00000200146BDE8F08D00204FF4801106465F
:1008D00084460EE0171B73EB050705D3121B63EB71
:1008E000050306434CEA010C49084FEA3000921810
:1008F0005B4150EA0107EDD152EA030012D082EACF
:10090000040083EA0501084305D0101BAB4106D261
:100910000122002306E000224FF0004302E06FF0C6
:10092000010253101AEB06004CEB085110EB0A00C1
:1009300041EB0B01BDE8F04DFFF78DBE70B521F026
:10094000004303430CD0C1F30A550024D5EB040542
:1009500064EB0403D617AD1AB34102DB0020014655
:1009600070BD201841EB025170BD0EB5C10F80EA79
:10097000E0700844CA07002140F233438DE80E00BE
:100980000A460B46FFF776FE03B000BDC1F30A52DC
:10099000C1F3130140F2FF3341F480119A4202DAAD
:1009A00000200146704740F233439A42A2F233429C
:1009B00002DC5242FFF7EFBD00F040B830B5041E34
:1009C00071F1000404DB4FF00044404264EB01018C
:1009D000141E73F1000405DB1C464FF00043524225
:1009E00063EB0403994208BF904230BD064C074DAB
:1009F00006E0E06840F0010394E8070098471034EF
:100A0000AC42F6D3FFF776FBE45A0008045B00081B
:100A1000094910B508784C1C18B1401E0870205CBC
:100A200010BD00210720ABBE207010BD0249087820
:100A3000421C0A707047000024000020202A04DBBA
:100A4000203A00FA02F1002070479140C2F12003E1
:100A500020FA03F3194390407047202A06DBCB1796
:100A6000203A41FA02F043EAE07306E041FA02F369
:100A7000D040C2F12002914008431946704700005F
:100A8000026811441378016018467047D160044928
:100A900051610449116200211161114600F022B830
:100AA000810A0008D90A000830B5041E71F100045B
:100AB00004DB4FF00044404264EB0101141E73F16B
:100AC000000405DB1C464FF00043524263EB040375
:100AD0008B4208BF824230BDC0B24FF4F05100F0EB
:100AE00097B900002DE9F34F8BB04FF0000801F1EA
:100AF0000C000C464FF0010B46460DF1080A019020
:100B00006269012101989047051E2DD0252D2CD01A
:100B1000216A8847C0B16269012101989047216A22
:100B200088470028F7D1411E62690198904700E08C
:100B3000761CA1690B988847216A88470028F7D15D
:100B4000E1690B988847DBE7A1690B98884707465E
:100B5000A84201D1761CD3E7E1690B9888477F1C36
:100B600002D1B8F1000F6FD046E1002762693D461F
:100B70003946019890472A2804D1626901210198D9
:100B800090470125DFF8849262690121019890471E
:100B9000A0F130010A290AD24F45E5DC07EB8701B5
:100BA00000EB4107303FDFD445F01005ECE7E906E4
:100BB00001D46FF000476C280AD04C2814D0682864
:100BC00015D06A280DD074281CD07A281AD01DE0C0
:100BD00062690121019890476C2802D045F0040514
:100BE00014E045F002050DE045F020050AE06269D9
:100BF000012101989047682802D045F0080505E0DA
:100C000045F400656269012101989047C4E90157E4
:100C100065283DD019DC58287AD00CDC452837D01F
:100C200004DC252826D0412831D131E046282FD0B8
:100C300047282CD12CE05B2877D0612828D0632866
:100C40007CD0642823D15AE0D0E06F2848D008DC5B
:100C500066281DD067281BD0692821D06E2816D1A0
:100C600027E0702845D0732868D0752847D07828A9
:100C70000DD14DE0A1690B988847054625283FF422
:100C800069AFE1690B9888476D1C3FF46AAFB3E028
:100C900023466A466FF001000B99AFF300809EE097
:100CA00045F040006060A80723464FF0000236D4AC
:100CB0003EE0E8077FF447AF2068011D216000682F
:100CC000290501D506701BE7290701D5068017E71E
:100CD000A90703D5F117C0E9006111E706600FE726
:100CE00045F040006060A80723464FF0080216D484
:100CF0001EE040F60E0125EA0100606016E045F0B6
:100D000040006060A80723464FF00A0207D40FE0B6
:100D100045F040006060A80708D5234610226FF018
:100D200001000B99AFF3008059E007E02346102241
:100D30006FF001000B99FFF705FA50E04FF0000942
:100D40004F464B46632802D05B2806D040E0E806B9
:100D500001D40120A06001273AE0626901210198D5
:100D600090475E2805D14FF0010962694946019814
:100D70009047216939B900210A46534643F821209A
:100D8000491C0829FADBB0B3216969B9C11700EB26
:100D9000D16253110AEB830122F01F02821A012053
:100DA0000B68904003430B606269012101989047F2
:100DB0005D28E8D1B9F1000F09D00020514651F863
:100DC0002020D24341F82020401C0828F7DB02AB4A
:100DD000224600976FF001000B99AFF300800028C6
:100DE0000CDA401C08D1BBF1000F05D04FF0FF30EA
:100DF0000DB0BDE8F08FFFE74046F9E7E90701D104
:100E000008F1010806444FF0000B79E6CCCCCC0C7D
:100E10007F2801D9002208E0064A02EB5002C007F1
:100E2000127800D1120902F00F0201209040084010
:100E300070470000E857000810B5044601F07CFD3B
:100E4000462001F04BFD01F0A3FD012800D110BDAB
:100E5000204601F043FD01F09BFD012801D1022055
:100E6000F5E701F083FD0020F1E710B500F007F889
:100E70001120FFF7E1FF782000F0CCFD10BD10B588
:100E80000120FFF7D9FF10BD10B5002401F054FD7B
:100E9000472001F023FD01F07BFD012801D1002056
:100EA00010BD01F0F7FC044601F090FC01F0F2FCEB
:100EB00000EB042084B201F0D5FC01F057FD204680
:100EC000EEE710B5044601F03BFEB82001F00AFE43
:100ED00001F062FE012800D110BD204601F002FEA3
:100EE00001F05AFE012801D10220F5E701F042FE8F
:100EF0000020F1E710B500F007F81120FFF7E1FF3F
:100F0000782000F087FD10BD10B50120FFF7D9FF54
:100F100010BD10B5002401F013FEB92001F0E2FD70
:100F200001F03AFE012801D1002010BD01F0B6FD0C
:100F3000044601F04FFD01F0B1FD00EB042084B246
:100F400001F094FD01F016FE2046EEE710B50446D0
:100F500001F0FAFE462001F0C9FE01F021FF012850
:100F600000D110BD204601F0C1FE01F019FF01289B
:100F700001D10220F5E701F001FF0020F1E710B5F3
:100F800000F007F81120FFF7E1FF782000F042FDA4
:100F900010BD10B50120FFF7D9FF10BD10B500241A
:100FA00001F0D2FE472001F0A1FE01F0F9FE012878
:100FB00001D1002010BD01F075FE044601F00EFEC7
:100FC00001F070FE00EB042084B201F053FE01F04A
:100FD000D5FE2046EEE710B5044601F0B9FFB82073
:100FE00001F088FF01F0E0FF012800D110BD20468C
:100FF00001F080FF01F0D8FF012801D10220F5E7C0
:1010000001F0C0FF0020F1E710B500F007F8112053
:10101000FFF7E1FF782000F0FDFC10BD10B50120C6
:10102000FFF7D9FF10BD10B5002401F091FFB920E2
:1010300001F060FF01F0B8FF012801D1002010BDD0
:1010400001F034FF044601F0CDFE01F02FFF00EB6C
:10105000042084B201F012FF01F094FF2046EEE775
:1010600010B5044602F078F8462002F047F802F086
:101070009FF8012800D110BD204602F03FF802F091
:1010800097F8012801D10220F5E702F07FF800204F
:10109000F1E710B500F007F81120FFF7E1FF782025
:1010A00000F0B8FC10BD10B50120FFF7D9FF10BD4E
:1010B00010B5002402F050F8472002F01FF802F0AB
:1010C00077F8012801D1002010BD01F0F3FF04469C
:1010D00001F08CFF01F0EEFF00EB042084B201F080
:1010E000D1FF02F053F82046EEE710B5044602F0B7
:1010F00037F9B82002F006F902F05EF9012800D1B4
:1011000010BD204602F0FEF802F056F9012801D188
:101110000220F5E702F03EF90020F1E710B500F0FB
:1011200007F81120FFF7E1FF782000F073FC10BDF5
:1011300010B50120FFF7D9FF10BD10B5002402F053
:101140000FF9B92002F0DEF802F036F9012801D1DA
:10115000002010BD02F0B2F8044602F04BF802F095
:10116000ADF800EB042084B202F090F802F012F91E
:101170002046EEE710B5044602F0F6F9462002F0EC
:10118000C5F902F01DFA012800D110BD204602F079
:10119000BDF902F015FA012801D10220F5E702F0AD
:1011A000FDF90020F1E710B500F007F81120FFF776
:1011B000E1FF782000F02EFC10BD10B50120FFF7F4
:1011C000D9FF10BD10B5002402F0CEF9472002F07F
:1011D0009DF902F0F5F9012801D1002010BD02F0BF
:1011E00071F9044602F00AF902F06CF900EB0420F0
:1011F00084B202F04FF902F0D1F92046EEE710B5C3
:10120000044602F0B5FAB82002F084FA02F0DCFAE3
:10121000012800D110BD204602F07CFA02F0D4FA79
:10122000012801D10220F5E702F0BCFA0020F1E725
:1012300010B500F007F81120FFF7E1FF782000F06B
:10124000E9FB10BD10B50120FFF7D9FF10BD10B5A7
:10125000002402F08DFAB92002F05CFA02F0B4FA30
:10126000012801D1002010BD02F030FA044602F03E
:10127000C9F902F02BFA00EB042084B202F00EFA56
:1012800002F090FA2046EEE710B5462001F0D2FABF
:1012900018B932A000F0F8FC02E031A000F0F4FC34
:1012A000FFF7E3FDB82001F0C9FB18B92DA000F04D
:1012B000EBFC02E02AA000F0E7FCFFF71BFE462053
:1012C00001F0C0FC18B928A000F0DEFC02E024A068
:1012D00000F0DAFCFFF753FEB82001F0B7FD18B9B3
:1012E00022A000F0D1FC02E01DA000F0CDFCFFF731
:1012F0008BFE462001F0AEFE18B91DA000F0C4FC24
:1013000002E017A000F0C0FCFFF7C3FEB82001F018
:10131000A5FF18B917A000F0B7FC02E010A000F07C
:10132000B3FCFFF7FBFE462002F09CF818B912A0B0
:1013300000F0AAFC02E00AA000F0A6FCFFF733FFD1
:10134000B82002F093F918B90CA000F09DFC02E05F
:1013500003A000F099FCFFF76BFF10BD41000000F7
:101360003000000042000000430000004400000084
:101370004500000046000000470000004800000053
:1013800000BFFEE77047002100BF00E0491C81421A
:10139000FCD3704710B5012000F03EF8012812D1AF
:1013A0000121094800F0D7F850B90221064800F0A1
:1013B000D2F828B905480088401E00B203490880C9
:1013C000012000F023F810BD000C014014000020A3
:1013D00010B5022000F020F8012812D1022109489E
:1013E00000F0B9F850B90121064800F0B4F828B966
:1013F00005480088401C00B203490880022000F024
:1014000005F810BD000C01401400002001490860DF
:101410007047000014040140014600200022074BE1
:101420001B6803EA0102054B14331B680B4013B120
:101430000AB1012000E000207047000000040140D4
:101440002DE9F0410246002500260020002300245B
:10145000002791F803C00CF00F0591F803C00CF0C1
:10146000100CBCF1000F03D091F802C04CEA050546
:1014700091F800C0BCF1000F31D0146800202BE0BF
:101480004FF0010C0CFA00F3B1F800C00CEA0306AF
:101490009E4220D183004FF00F0C0CFA03F7BC439F
:1014A00005FA03FC4CEA040491F803C0BCF1280FD0
:1014B00006D14FF0010C0CFA00FCC2F814C00AE08F
:1014C00091F803C0BCF1480F05D14FF0010C0CFAA4
:1014D00000FCC2F810C0401C0828D1D31460B1F839
:1014E00000C0BCF1FF0F34DD546800202EE000F195
:1014F000080C4FF0010808FA0CF3B1F800C00CEA30
:1015000003069E4221D183004FF00F0C0CFA03F723
:10151000BC4305FA03FC4CEA040491F803C0BCF197
:10152000280F05D100F1080C08FA0CF8C2F8148055
:1015300091F803C0BCF1480F07D100F1080C4FF03F
:10154000010808FA0CF8C2F81080401C0828CED315
:101550005460BDE8F0810246002093680B400BB157
:10156000012000E000207047416170470161704731
:1015700000BFFEE708B50121042000F0DFF80F20CE
:10158000ADF8000010208DF8030003208DF8020054
:1015900069460248FFF754FF08BD000000080140FB
:1015A00008B50121042000F0C9F84FF48050ADF8CF
:1015B000000010208DF8030003208DF8020069461A
:1015C0000148FFF73DFF08BD0008014010B54FF48A
:1015D00080510248FFF7C8FF10BD0000000801401D
:1015E00010B54FF480510248FFF7C0FF10BD000056
:1015F0000008014070B5FFF747FC0646FEF72AFFDA
:1016000005460449FEF776FE04464FF07E51FEF78C
:101610003FFE70BD9A99993F70B5FFF77AFC064678
:10162000FEF718FF05460449FEF764FE04464FF036
:101630007E51FEF72DFE70BD9A99993F70B5FFF768
:10164000ADFC0646FEF706FF05460449FEF752FECE
:1016500004464FF07E51FEF71BFE70BD9A99993FEC
:1016600070B5FFF7E0FC0646FEF7F4FE05460449B8
:10167000FEF740FE04464FF07E51FEF709FE70BDB6
:101680009A99993F70B5FFF713FD0646FEF7E2FE03
:1016900005460449FEF72EFE04464FF07E51FEF744
:1016A000F7FD70BD9A99993F70B5FFF746FD064664
:1016B000FEF7D0FE05460449FEF71CFE04464FF037
:1016C0007E51FEF7E5FD70BD9A99993F70B5FFF721
:1016D00079FD0646FEF7BEFE05460449FEF70AFE02
:1016E00004464FF07E51FEF7D3FD70BD9A99993FA5
:1016F00070B5FFF7ACFD0646FEF7ACFE05460449A3
:10170000FEF7F8FD04464FF07E51FEF7C1FD70BDB7
:101710009A99993F00BFFEE77047704729B1064A82
:10172000D2690243044BDA6104E0034AD26982437E
:10173000014BDA61704700000010024029B1064AEF
:1017400092690243044B9A6104E0034A926982431E
:10175000014B9A61704700000010024030B5002133
:101760000022002400232D4D6D6805F00C0121B1ED
:10177000042905D0082923D105E0294D056022E080
:10178000274D05601FE0254D6D6805F47012234D4F
:101790006D6805F48034022505EB92421CB9214D99
:1017A000554305600BE01D4D6D6805F400351DB116
:1017B0001C4D5543056002E0194D5543056002E09C
:1017C000174D056000BF00BF144D6D6805F0F001B6
:1017D0000909154D6B5C0568DD4045600F4D6D686E
:1017E00005F4E061090A104D6B5C4568DD408560D9
:1017F0000A4D6D6805F46051C90A0B4D6B5C456874
:10180000DD40C560054D6D6805F44041890B074D0D
:101810006B5CC568B5FBF3F5056130BD0010024097
:1018200000127A0000093D00000000201000002096
:10183000704710B500F002F810BD00000CB5002094
:10184000019000903348006840F4803031490860CE
:1018500000BF3048006800F4003000900198401C40
:101860000190009818B90198B0F5A06FF1D12948FE
:10187000006800F4003010B10120009001E0002069
:1018800000900098012843D12348006840F01000E0
:10189000214908600846006820F0030008600846F7
:1018A000006840F0020008601A4840681949486022
:1018B0000846406848600846406840F480604860D8
:1018C0000846406820F47C1048600846406840F4B0
:1018D000E81048600846006840F08070086000BF6B
:1018E0000C48006800F000700028F9D009484068F2
:1018F00020F00300074948600846406840F00200B5
:10190000486000BF0348406800F00C000828F9D187
:101910000CBD000000100240002002402DE9F05FE5
:101920008346894600245846FEF799FD0746224A19
:10193000224BFEF71DFD0546FEF79EFD8246002563
:101940000BE0204600F086FE00F0B4F8601C84B284
:10195000082C00D10024681C85B2554501D2012015
:1019600000E00020B9F1000F01D1012100E00021C9
:1019700008400028E5D100250DE0C4F1070188B238
:1019800000F068FE00F096F8601C84B2082C00D1CC
:101990000024681C85B2554501D2012000E00020DA
:1019A000B9F1010F01D1012100E000210840002818
:1019B000E3D1BDE8F09F00006891ED7C3F35F23F38
:1019C00030B50146B1F1807F01D3012030BD21F057
:1019D0007F40401E4FF0E022506150170F22002838
:1019E00007DA13071D0E094B00F00F04241F1D55C5
:1019F00003E013071C0E064B1C5400BF00204FF0E1
:101A0000E0229061072010610020DFE718ED00E080
:101A100000E400E070B504460C48FFF7D1FF002554
:101A200008E000BF4FF0E020006900F4803000289B
:101A3000F8D06D1CA542F4D34FF0E020006920F0EF
:101A400001004FF0E021086170BD00004019010065
:101A50007047000010B51348006840F001001149BC
:101A6000086008464068104908400E49486008462A
:101A700000680E4908400B4908600846006820F4D9
:101A8000802008600846406820F4FE0048604FF45B
:101A90001F008860FFF7CDFE4FF00060044908602A
:101AA00010BD0000001002400000FFF8FFFFF6FE2E
:101AB00008ED00E010B501210948FFF755FD0221AE
:101AC0000748FFF751FD04210548FFF74DFD0821A8
:101AD0000348FFF749FD4FF41670FFF754FC10BDA3
:101AE0000008014021B1828942F40052828104E061
:101AF00082894DF6FF731A408281704700B585B028
:101B000001210820FFF71AFE01218804FFF706FED5
:101B10004FF48060ADF8100018208DF813000320FA
:101B20008DF8120004A91348FFF78AFC4FF40060F7
:101B3000ADF8100004208DF8130004A90D48FFF73C
:101B40007FFC4FF4E13000900020ADF80400ADF8C8
:101B50000600ADF80800ADF80C000C20ADF80A0046
:101B60006946054800F018F801210348FFF7BAFF5D
:101B700005B000BD000C01400048004002460020B6
:101B8000B1F5007F00D100BF13880B400BB10120DD
:101B900000E00020704700002DE9F04786B00546C0
:101BA0000E460024A24600BFA1460027B08900B11E
:101BB00000BF2F462C8A4CF6FF700440F088044387
:101BC0002C82AC894EF6F3100440B088318908436A
:101BD000718908430443AC81AC8A4FF6FF4004404E
:101BE000B0890443AC8201A8FFF7B8FD1F488742C3
:101BF00002D1DDF810A001E0DDF80CA0A88900F406
:101C0000004040B10AEBCA0000EB0A1031684900FD
:101C1000B0FBF1F807E00AEBCA0000EB0A103168EC
:101C20008900B0FBF1F86420B8FBF0F00401200952
:101C3000642101FB1089A88900F4004040B13220E2
:101C400000EBC900B0FBF1F000F00700044308E02E
:101C5000322000EB09106421B0FBF1F000F00F001E
:101C600004432C8106B0BDE8F08700000038014035
:101C700001468888C0F308007047C1F308028280DB
:101C8000704700BFFEE700000FB4054B10B503A975
:101C9000044A029800F046F910BC5DF814FB0000FD
:101CA000A92700081C0000202DE9F0414F1E00EB81
:101CB000C7010446D1E9000115461E4637F0060269
:101CC0000DD02A463346FEF753FB7F1E04EBC703B5
:101CD000D3E90023FEF71CFD37F00602F1D1022FF5
:101CE00025D0042F13D0062F18BFBDE8F0812A4657
:101CF0003346FEF73DFBD4E90A23FEF709FD2A46E9
:101D00003346FEF735FBD4E90823FEF701FD2A46EA
:101D10003346FEF72DFBD4E90623FEF7F9FC2A46ED
:101D20003346FEF725FBD4E90423FEF7F1FC2A46EF
:101D30003346FEF71DFBD4E90223FEF7E9FC2A46F1
:101D40003346FEF715FBD4E90023BDE8F041FEF76A
:101D5000DFBC00000022134610460149FEF77FBD9C
:101D60000000F03F0122FEF7E9BD002213461046B5
:101D70001146FEF774BD02E008C8121F08C1002A10
:101D8000FAD170477047002001E001C1121F002AFC
:101D9000FBD1704701490860704700002000002017
:101DA0002DE9FF5F82B00021DDE90430020DDDF88E
:101DB00040B0034318D044F61050A2F2FF32424321
:101DC0001514119801281FD0A5EB0B00401C5FEAE9
:101DD000000A4FF000064E4FDFF83891B0465046EB
:101DE00015D5CAF1000413E0119801244AA3012873
:101DF00001D16FEA0B010298119AC0E90031C0E9E4
:101E0000024206B0BDE8F09FCBF10000DFE70446D8
:101E10000021404A491842EB0450CDE9001012E07D
:101E2000E00707D032463B4640464946FEF7A0FA57
:101E30008046894632463B4610461946FEF798FAD8
:101E400006460F466410002CEAD1DDE90401DDE905
:101E50000023BAF1000F06DAFEF78AFA42464B4633
:101E6000FEF786FA05E0FEF7FAFC42464B46FEF71F
:101E7000F6FC04460E460022284BFEF79FFD03D8D1
:101E80004FF0FF30014607E00022254B2046314647
:101E9000FEF73EFCFEF77AFD102409E0002C0ADB79
:101EA0000A220023FEF746FB039B30321A55641EBC
:101EB00050EA0102F2D1641C039AC4F111031444E4
:101EC000119A012A03D0012208430DD10AE00843E8
:101ED00004D000204FF0110B119072E7A3EB0B051B
:101EE0006D1E0DE05B4504DD4FF0000205F10105BC
:101EF00004E003DA4FF00002A5F10105002AECD05E
:101F000002981199C0E90231C0E9004579E7000063
:101F1000000014400000F03F300000000000F043DB
:101F20000000E03F2DE9FF4F95B09B4689460646ED
:101F300000250FE2252877D100242746F84A012101
:101F4000059400E0044316F8013F203B01FA03F03A
:101F50001042F7D130782A2811D06FF02F03307853
:101F6000A0F13002092A16D8059A44F0020402EBC7
:101F7000820203EB42021044761C0590EFE759F809
:101F8000042B0592002A03DA504244F400540590D1
:101F900044F00204761C30782E2816D116F8010F72
:101FA00044F004042A280DD06FF02F023078A0F1FD
:101FB0003003092B09D807EB870302EB4303C7184B
:101FC000761CF3E759F8047B761C30786C280FD028
:101FD00006DC4C2817D068280DD06A2814D104E0FC
:101FE000742810D07A280FD10DE044F400140AE0D0
:101FF00044F4801401E044F440147278824202D127
:1020000004F58014761C761C307866280BD013DC1F
:10201000582877D009DC002875D04528F6D0462806
:10202000F4D047281AD19DE118E0632835D0642800
:1020300079D0652812D195E1702873D008DC672823
:10204000F1D069286FD06E280DD06F2806D1B5E089
:1020500073282CD0752875D0782874D05A461799D3
:1020600090476D1C75E1C4F30250022809D0032883
:102070000DD0D9F8001004280DD00D6009F1040925
:1020800067E1D9F80010EA17C1E90052F6E7D9F87C
:1020900000100D80F2E70D70F0E719F8041B8DF8C1
:1020A000001000208DF80100EA46012003E059F8F5
:1020B00004AB4FF0FF3061074FF0000102D40DE098
:1020C00008F101018846B9420FDA8045F8DB1AF8B9
:1020D00008100029F4D108E008F101018846814286
:1020E000FADB1AF808100029F6D105985B46A0EB38
:1020F000080721463846179A00F094FA284400EB66
:10210000080507E04DE029E10DE01AF8010B5A46F9
:1021100017999047B8F10108F7D25B462146384637
:10212000179A13E142E00A220092C4F302524FF0E0
:10213000000A022A08D059F804CB032A4FEAEC71AE
:102140000AD00DE029E02AE009F1070121F0070299
:10215000F2E802C1914609E00FFA8CFC4FEAEC71FB
:10216000042A03D14FFA8CFC4FEAEC71002907DAFC
:102170000A460021DCF1000C61EB02012D2202E095
:10218000220504D52B228DF80420012203E0E2076A
:1021900001D02022F7E7904659E00A2102E0102200
:1021A0000DE010214FF0000A00910BE010224FF0DB
:1021B000000A44F004040827009203E008224FF0CC
:1021C000000A0092C4F30252022A05D059F804CB47
:1021D0000021032A08D009E009F1070121F00702D4
:1021E000F2E802C1914605E01FFA8CFC042A01D1F5
:1021F0000CF0FF0C4FF00008220728D5702806D0FD
:10220000009B83F0100353EA0A0305D00EE040223E
:102210008DF80420012208E05CEA010206D0302299
:102220008DF804208DF8050002229046009B83F073
:10223000080353EA0A030AD15CEA010201D16207EA
:1022400005D530228DF804204FF001087F1E582854
:1022500004D034A003900EA802900DE036A0F9E758
:1022600053466046009AFEF765F984460398825CFF
:102270000298401E029002705CEA0100F0D10298C0
:1022800006A9081A00F1200A600702D524F4803458
:1022900000E00127574502DDA7EB0A0000E000201F
:1022A00000EB0A01009005984144401A0590E003B4
:1022B00006D45B462146179A059800F0B3F9054409
:1022C000002706E001A85A46C05D179990476D1C8B
:1022D0007F1C4745F6DBE0030CD55B462146179A89
:1022E000059800F09FF9054404E030205A461799FC
:1022F00090476D1C0099481E00900029F5DC08E00D
:10230000029802995A460078491C02911799904701
:102310006D1CBAF10001AAF1010AF1DC65E10000CF
:1023200009280100303132333435363738396162AB
:10233000636465660000000030313233343536376F
:1023400038394142434445460000000000F058F946
:102350000544761C307800287FF4ECAD19B028468F
:10236000BDE8F08F620700D4062709F1070222F0CA
:10237000070CFCE80223E14603F000485FEA080C82
:1023800002D00FF2702C0DE05FEA045C02D50FF270
:10239000682C07E05FEAC47C02D00FF2602C01E0F9
:1023A000AFF2700C4FF0FF3823F00043CDF850C06F
:1023B00065280CD006DC452809D046281DD04728C2
:1023C0003DD13DE0662818D067287ED138E0002155
:1023D000112F01DB112000E0781CCDE9000106A9D6
:1023E0000EA8FFF7DDFCDDE90F010E9A0391002135
:1023F000009207F1010A04914DE04FF00040009770
:10240000CDE9011006A90EA8FFF7CAFCDDE90F020D
:1024100003920E9B11990022DDF80CA00093049208
:1024200011B9791C00EB010AB7EB0A0004D4C0F122
:10243000FF3007F1010A0490AAEB0700019044E085
:10244000012F00DA01270021112F01DD112000E00A
:102450003846CDE9000106A90EA8FFF7A1FCDDE989
:102460000F010E9A0391002104910092BA462107B0
:102470000CD40399514500DA8A46BAF1010F05DD03
:10248000009AAAF10101515C302908D0B84202DA61
:1024900010F1040F06DA0121CDE9011015E0AAF1CF
:1024A0000101E9E7002805DC049901440491AAEB45
:1024B000000102E0411C514500DD8A460499401AA2
:1024C000401C01904FF000400290200704D4019876
:1024D000504501DBCDF8048000208DF84F000298B4
:1024E0000DF14F07B0F1004F25D02B200E90029830
:1024F0004FF0020800280CDA404202902D200E9086
:1025000007E00A210298FDF7FFFF3031029007F83B
:10251000011DB8F10001A8F10108F2DC02980028C1
:10252000EFD1791E0E980870307800F0200040F04E
:10253000450007F8020D12A8C01B00F10708149807
:10254000007800B1012000EB0A01019801EBE07175
:1025500005984144401A401E0590E00306D45B46AE
:102560002146179A059800F05DF805441498007804
:1025700018B15A46179990476D1CE00324D55B4665
:102580002146179A059800F04DF805441CE0049880
:10259000002807DBDDE90301884203DD0098405C89
:1025A000179901E0179930205A469047049805F191
:1025B0000105401C04900198401E019004D12E207A
:1025C0005A46179990476D1CBAF10001AAF1010A09
:1025D000DDDC05E017F8010B5A46179990476D1C92
:1025E000B8F10001A8F10108F4DC5B462146179A16
:1025F0000598ABE62D0000002B0000002000000035
:102600002DE9F041044600251E461746880404D4EF
:1026100005E039462020B0476D1C641EF9D52846D8
:10262000BDE8F0812DE9F041044600251E469046A4
:10263000C80301D5302700E02027880404D505E031
:1026400041463846B0476D1C641EF9D52846BDE8A2
:10265000F081000010B50446082C15D2DFE804F024
:102660000415263748596A7B01214648FEF77EFF4C
:1026700002214448FEF778FF04214248FEF774FF28
:1026800008214048FEF770FF76E001213D48FEF743
:102690006DFF02213B48FEF769FF04213948FEF730
:1026A00063FF08213748FEF75FFF65E001213548E9
:1026B000FEF75AFF02213348FEF758FF0421314844
:1026C000FEF752FF08212F48FEF74EFF54E001218C
:1026D0002C48FEF749FF02212A48FEF747FF042154
:1026E0002848FEF743FF08212648FEF73DFF43E058
:1026F00001212448FEF738FF02212248FEF734FF6B
:1027000004212048FEF732FF08211E48FEF72CFF67
:1027100032E001211B48FEF727FF02211948FEF78E
:1027200023FF04211748FEF721FF08211548FEF773
:102730001DFF21E001211348FEF716FF0221114879
:10274000FEF712FF04210F48FEF70EFF08210D4887
:10275000FEF70CFF10E001210A48FEF707FF0221F7
:102760000848FEF701FF04210648FEF7FDFE082198
:102770000448FEF7FBFE00BF00BF42F21070FEF7F8
:1027800002FE10BD0008014010B5044600BF202124
:102790000448FFF7F3F90028F9D00248FFF768FA78
:1027A00010BD00000048004070B504460D46E1B27F
:1027B0000548FFF762FA00BF80210348FFF7DEF902
:1027C0000028F9D0204670BD0048004010B54FF4F5
:1027D00080500B49086000F03DF84FF40050084964
:1027E000091F086000F036F84FF4005004490860F3
:1027F00000F030F84FF480500149091F086010BD07
:10280000140C014008B501210820FEF797FF4FF492
:102810004050ADF8000003208DF8020014208DF820
:10282000030069460248FEF70BFE00F09FF808BD62
:10283000000C014070B50446FFF7E4FF00F07CF89F
:10284000204600F04BF800F0A3F8054600F08EF8A3
:10285000284670BD002001E0411CC8B20A28FBDBFD
:102860007047000010B54FF4805009490860FFF729
:10287000F1FF4FF4005006490860FFF7EBFF4FF4FB
:1028800000500349091D0860FFF7E4FF10BD000078
:10289000100C014070B50024002518E06006040EFD
:1028A0004FF400500C490860FFF7D4FF0A4808387D
:1028B000006800F4805008B1601CC4B24FF40050AE
:1028C0000549091D0860FFF7C5FF681CC5B2082D42
:1028D000E4DB204670BD0000100C014070B50446DA
:1028E000002524E004F0800020B14FF4805011490D
:1028F000086004E04FF480500E49091D0860FFF79E
:10290000A9FF4FF400500B490860FFF7A3FF4FF4F5
:1029100000500849091D0860072D02D14010091F09
:1029200008606006040EFFF795FF681CC5B2082D0D
:10293000D8DB70BD100C014010B54FF480500A492F
:10294000086040000860FFF785FF4FF4805006499B
:10295000091D0860FFF77EFF4FF400500249091D72
:102960000860FFF777FF10BD100C014010B54FF461
:102970008050064908604000091F0860FFF76AFFA1
:102980004FF480500149091F086010BD140C01402C
:1029900010B54FF480500E490860FFF75BFF4FF40D
:1029A00000500B490860FFF755FF094808380068D8
:1029B00000F4805008B1012400E000244FF40050DE
:1029C0000349091D0860FFF745FF204610BD0000C0
:1029D000100C014010B54FF480500B49086000F016
:1029E0003DF84FF400500849091F086000F036F820
:1029F0004FF400500449086000F030F84FF4805064
:102A00000149091F086010BD140C014008B50121DF
:102A10000820FEF793FE4FF44050ADF8000003206D
:102A20008DF8020014208DF8030069460248FEF775
:102A300007FD00F09FF808BD000C014070B504468A
:102A4000FFF7E4FF00F07CF8204600F04BF800F0C0
:102A5000A3F8054600F08EF8284670BD002001E07E
:102A6000411CC8B20A28FBDB7047000010B54FF4C8
:102A7000805009490860FFF7F1FF4FF40050064904
:102A80000860FFF7EBFF4FF400500349091D086091
:102A9000FFF7E4FF10BD0000100C014070B50024EA
:102AA000002518E06006040E4FF400500C49086041
:102AB000FFF7D4FF0A480838006800F4805008B1D6
:102AC000601CC4B24FF400500549091D0860FFF7AF
:102AD000C5FF681CC5B2082DE4DB204670BD0000B0
:102AE000100C014070B50446002524E004F080007D
:102AF00020B14FF480501149086004E04FF4805039
:102B00000E49091D0860FFF7A9FF4FF400500B495B
:102B10000860FFF7A3FF4FF400500849091D086043
:102B2000072D02D14010091F08606006040EFFF750
:102B300095FF681CC5B2082DD8DB70BD100C014094
:102B400010B54FF480500A49086040000860FFF754
:102B500085FF4FF480500649091D0860FFF77EFF8E
:102B60004FF400500249091D0860FFF777FF10BDC0
:102B7000100C014010B54FF4805006490860400029
:102B8000091F0860FFF76AFF4FF480500149091FD1
:102B9000086010BD140C014010B54FF480500E4970
:102BA0000860FFF75BFF4FF400500B490860FFF728
:102BB00055FF09480838006800F4805008B1012426
:102BC00000E000244FF400500349091D0860FFF79E
:102BD00045FF204610BD0000100C014010B54FF419
:102BE00080400B49086000F03DF84FF40040084970
:102BF000091F086000F036F84FF4004004490860EF
:102C000000F030F84FF480400149091F086010BD02
:102C1000140C014008B501210820FEF78FFD4FF488
:102C20004040ADF8000003208DF8020014208DF81C
:102C3000030069460248FEF703FC00F09FF808BD58
:102C4000000C014070B50446FFF7E4FF00F07CF88B
:102C5000204600F04BF800F0A3F8054600F08EF88F
:102C6000284670BD002001E0411CC8B20A28FBDBE9
:102C70007047000010B54FF4804009490860FFF725
:102C8000F1FF4FF4004006490860FFF7EBFF4FF4F7
:102C900000400349091D0860FFF7E4FF10BD000074
:102CA000100C014070B50024002518E06006040EE9
:102CB0004FF400400C490860FFF7D4FF0A48083879
:102CC000006800F4804008B1601CC4B24FF40040BA
:102CD0000549091D0860FFF7C5FF681CC5B2082D2E
:102CE000E4DB204670BD0000100C014070B50446C6
:102CF000002524E004F0800020B14FF48040114909
:102D0000086004E04FF480400E49091D0860FFF799
:102D1000A9FF4FF400400B490860FFF7A3FF4FF4F1
:102D200000400849091D0860072D02D14010091F05
:102D300008606006040EFFF795FF681CC5B2082DF9
:102D4000D8DB70BD100C014010B54FF480400A492B
:102D5000086040000860FFF785FF4FF48040064997
:102D6000091D0860FFF77EFF4FF400400249091D6E
:102D70000860FFF777FF10BD100C014010B54FF44D
:102D80008040064908604000091F0860FFF76AFF9D
:102D90004FF480400149091F086010BD140C014028
:102DA00010B54FF480400E490860FFF75BFF4FF409
:102DB00000400B490860FFF755FF094808380068D4
:102DC00000F4804008B1012400E000244FF40040EA
:102DD0000349091D0860FFF745FF204610BD0000AC
:102DE000100C014010B54FF480400B49086000F012
:102DF0003DF84FF400400849091F086000F036F81C
:102E00004FF400400449086000F030F84FF480406F
:102E10000149091F086010BD140C014008B50121CB
:102E20000820FEF78BFC4FF44040ADF80000032073
:102E30008DF8020014208DF8030069460248FEF761
:102E4000FFFA00F09FF808BD000C014070B5044681
:102E5000FFF7E4FF00F07CF8204600F04BF800F0AC
:102E6000A3F8054600F08EF8284670BD002001E06A
:102E7000411CC8B20A28FBDB7047000010B54FF4B4
:102E8000804009490860FFF7F1FF4FF40040064910
:102E90000860FFF7EBFF4FF400400349091D08608D
:102EA000FFF7E4FF10BD0000100C014070B50024D6
:102EB000002518E06006040E4FF400400C4908603D
:102EC000FFF7D4FF0A480838006800F4804008B1D2
:102ED000601CC4B24FF400400549091D0860FFF7AB
:102EE000C5FF681CC5B2082DE4DB204670BD00009C
:102EF000100C014070B50446002524E004F0800069
:102F000020B14FF480401149086004E04FF4804044
:102F10000E49091D0860FFF7A9FF4FF400400B4957
:102F20000860FFF7A3FF4FF400400849091D08603F
:102F3000072D02D14010091F08606006040EFFF73C
:102F400095FF681CC5B2082DD8DB70BD100C014080
:102F500010B54FF480400A49086040000860FFF750
:102F600085FF4FF480400649091D0860FFF77EFF8A
:102F70004FF400400249091D0860FFF777FF10BDBC
:102F8000100C014010B54FF4804006490860400025
:102F9000091F0860FFF76AFF4FF480400149091FCD
:102FA000086010BD140C014010B54FF480400E496C
:102FB0000860FFF75BFF4FF400400B490860FFF724
:102FC00055FF09480838006800F4804008B1012422
:102FD00000E000244FF400400349091D0860FFF79A
:102FE00045FF204610BD0000100C014010B54FF405
:102FF00080700B49086000F03DF84FF400700849FC
:10300000091F086000F036F84FF4007004490860AA
:1030100000F030F84FF480700149091F086010BDBE
:103020001408014008B501210420FEF787FB4FF486
:103030004070ADF8000003208DF8020014208DF8D8
:10304000030069460248FEF7FBF900F09FF808BD4F
:103050000008014070B50446FFF7E4FF00F07CF87B
:10306000204600F04BF800F0A3F8054600F08EF87B
:10307000284670BD002001E0411CC8B20A28FBDBD5
:103080007047000010B54FF4807009490860FFF7E1
:10309000F1FF4FF4007006490860FFF7EBFF4FF4B3
:1030A00000700349091D0860FFF7E4FF10BD000030
:1030B0001008014070B50024002518E06006040ED9
:1030C0004FF400700C490860FFF7D4FF0A48083835
:1030D000006800F4807008B1601CC4B24FF4007046
:1030E0000549091D0860FFF7C5FF681CC5B2082D1A
:1030F000E4DB204670BD00001008014070B50446B6
:10310000002524E004F0800020B14FF480701149C4
:10311000086004E04FF480700E49091D0860FFF755
:10312000A9FF4FF400700B490860FFF7A3FF4FF4AD
:1031300000700849091D0860072D02D14010091FC1
:1031400008606006040EFFF795FF681CC5B2082DE5
:10315000D8DB70BD1008014010B54FF480700A49EB
:10316000086040000860FFF785FF4FF48070064953
:10317000091D0860FFF77EFF4FF400700249091D2A
:103180000860FFF777FF10BD1008014010B54FF43D
:103190008070064908604000091F0860FFF76AFF59
:1031A0004FF480700149091F086010BD14080140E8
:1031B00010B54FF480700E490860FFF75BFF4FF4C5
:1031C00000700B490860FFF755FF09480838006890
:1031D00000F4807008B1012400E000244FF4007076
:1031E0000349091D0860FFF745FF204610BD000098
:1031F0001008014010B54FF480700B49086000F0D2
:103200003DF84FF400700849091F086000F036F8D7
:103210004FF400700449086000F030F84FF48070FB
:103220000149091F086010BD1408014008B50121BB
:103230000420FEF783FA4FF44070ADF8000003203D
:103240008DF8020014208DF8030069460248FEF74D
:10325000F7F800F09FF808BD0008014070B504467B
:10326000FFF7E4FF00F07CF8204600F04BF800F098
:10327000A3F8054600F08EF8284670BD002001E056
:10328000411CC8B20A28FBDB7047000010B54FF4A0
:10329000807009490860FFF7F1FF4FF4007006499C
:1032A0000860FFF7EBFF4FF400700349091D086049
:1032B000FFF7E4FF10BD00001008014070B50024C6
:1032C000002518E06006040E4FF400700C490860F9
:1032D000FFF7D4FF0A480838006800F4807008B18E
:1032E000601CC4B24FF400700549091D0860FFF767
:1032F000C5FF681CC5B2082DE4DB204670BD000088
:103300001008014070B50446002524E004F0800058
:1033100020B14FF480701149086004E04FF48070D0
:103320000E49091D0860FFF7A9FF4FF400700B4913
:103330000860FFF7A3FF4FF400700849091D0860FB
:10334000072D02D14010091F08606006040EFFF728
:1033500095FF681CC5B2082DD8DB70BD1008014070
:1033600010B54FF480700A49086040000860FFF70C
:1033700085FF4FF480700649091D0860FFF77EFF46
:103380004FF400700249091D0860FFF777FF10BD78
:103390001008014010B54FF48070064908604000E5
:1033A000091F0860FFF76AFF4FF480700149091F89
:1033B000086010BD1408014010B54FF480700E492C
:1033C0000860FFF75BFF4FF400700B490860FFF7E0
:1033D00055FF09480838006800F4807008B10124DE
:1033E00000E000244FF400700349091D0860FFF756
:1033F00045FF204610BD00001008014010B54FF4F5
:1034000080600B49086000F03DF84FF40060084907
:10341000091F086000F036F84FF4006004490860A6
:1034200000F030F84FF480600149091F086010BDBA
:103430001408014008B501210420FEF77FF94FF47C
:103440004060ADF8000003208DF8020014208DF8D4
:10345000030069460248FDF7F3FF00F09FF808BD3E
:103460000008014070B50446FFF7E4FF00F07CF867
:10347000204600F04BF800F0A3F8054600F08EF867
:10348000284670BD002001E0411CC8B20A28FBDBC1
:103490007047000010B54FF4806009490860FFF7DD
:1034A000F1FF4FF4006006490860FFF7EBFF4FF4AF
:1034B00000600349091D0860FFF7E4FF10BD00002C
:1034C0001008014070B50024002518E06006040EC5
:1034D0004FF400600C490860FFF7D4FF0A48083831
:1034E000006800F4806008B1601CC4B24FF4006052
:1034F0000549091D0860FFF7C5FF681CC5B2082D06
:10350000E4DB204670BD00001008014070B50446A1
:10351000002524E004F0800020B14FF480601149C0
:10352000086004E04FF480600E49091D0860FFF751
:10353000A9FF4FF400600B490860FFF7A3FF4FF4A9
:1035400000600849091D0860072D02D14010091FBD
:1035500008606006040EFFF795FF681CC5B2082DD1
:10356000D8DB70BD1008014010B54FF480600A49E7
:10357000086040000860FFF785FF4FF4806006494F
:10358000091D0860FFF77EFF4FF400600249091D26
:103590000860FFF777FF10BD1008014010B54FF429
:1035A0008060064908604000091F0860FFF76AFF55
:1035B0004FF480600149091F086010BD14080140E4
:1035C00010B54FF480600E490860FFF75BFF4FF4C1
:1035D00000600B490860FFF755FF0948083800688C
:1035E00000F4806008B1012400E000244FF4006082
:1035F0000349091D0860FFF745FF204610BD000084
:103600001008014010B54FF480600B49086000F0CD
:103610003DF84FF400600849091F086000F036F8D3
:103620004FF400600449086000F030F84FF4806007
:103630000149091F086010BD1408014008B50121A7
:103640000420FEF77BF84FF44060ADF80000032043
:103650008DF8020014208DF8030069460248FDF73A
:10366000EFFE00F09FF808BD0008014070B5044669
:10367000FFF7E4FF00F07CF8204600F04BF800F084
:10368000A3F8054600F08EF8284670BD002001E042
:10369000411CC8B20A28FBDB7047000010B54FF48C
:1036A000806009490860FFF7F1FF4FF400600649A8
:1036B0000860FFF7EBFF4FF400600349091D086045
:1036C000FFF7E4FF10BD00001008014070B50024B2
:1036D000002518E06006040E4FF400600C490860F5
:1036E000FFF7D4FF0A480838006800F4806008B18A
:1036F000601CC4B24FF400600549091D0860FFF763
:10370000C5FF681CC5B2082DE4DB204670BD000073
:103710001008014070B50446002524E004F0800044
:1037200020B14FF480601149086004E04FF48060DC
:103730000E49091D0860FFF7A9FF4FF400600B490F
:103740000860FFF7A3FF4FF400600849091D0860F7
:10375000072D02D14010091F08606006040EFFF714
:1037600095FF681CC5B2082DD8DB70BD100801405C
:1037700010B54FF480600A49086040000860FFF708
:1037800085FF4FF480600649091D0860FFF77EFF42
:103790004FF400600249091D0860FFF777FF10BD74
:1037A0001008014010B54FF48060064908604000E1
:1037B000091F0860FFF76AFF4FF480600149091F85
:1037C000086010BD1408014010B54FF480600E4928
:1037D0000860FFF75BFF4FF400600B490860FFF7DC
:1037E00055FF09480838006800F4806008B10124DA
:1037F00000E000244FF400600349091D0860FFF752
:1038000045FF204610BD00001008014010B5012101
:103810004FF41660FEF782F810BD00002DE9F04D60
:10382000C84A002490B0914205DA21F00043934247
:1038300001D805D120B110B0BDE8F04DFEF792BA25
:10384000B1F5801F1BDA53EA000209D0002911DA12
:103850000120FEF79FFA10B0BDE8F04DFEF785BAE3
:103860000220FEF797FAFEF775FA10B081F00041DA
:10387000BDE8F08D6FF035043622FDF75FF804EBFC
:103880002152C1F31308B049A2F2FF33414401F4BD
:10389000801282F07F6103EB225281F0405100924E
:1038A00041EA08010022A94BFCF7D3FF044608F1C6
:1038B0000200A74EC0F313000D467E44032867D2D2
:1038C000D6E900232046FDF7EFF81ED10098002826
:1038D00002BFD6E9000110B0BDE8F08DFDF745F854
:1038E00007460C469B4A9C4BFCF742FD06460D469C
:1038F0009A4A9B4B38462146FCF73AFD10B03246B7
:103900002B46BDE8F04DFCF703BF4FF05532954B09
:1039100020462946FCF72CFD0022934BFCF79CFF28
:1039200006460F4622462B4610461946FCF720FD58
:1039300032463B46FCF71CFD064600980F46F0B1A8
:10394000FDF713F880468A46824A834BFCF710FD48
:1039500032463B46FCF780FF22462B46FCF779FFB8
:1039600005460C467D4A7E4B40465146FCF700FD1D
:1039700010B02A462346BDE8F04DFCF76ABF0B465F
:1039800010B0324620462946BDE8F04DFCF761BF35
:1039900000224FF080432046FCF7BAFE02460B4659
:1039A00020462946FCF75BFF06460F460098FCF7C9
:1039B000DCFFCDE9040132463B4610463946FCF7B0
:1039C000D7FC0C9069480C9A4044019009910B4631
:1039D0001046FCF7CDFC8246024665488B46C8F18E
:1039E00051080B4608F5D72803217844FEF75CF907
:1039F00052465B46FCF7BCFC0A905E480D9152466D
:103A00005B4604217844FEF74FF9099B0C9AFCF7BA
:103A1000AFFC844601980D9B40EA080860460A9A6C
:103A2000FCF776FE83460891B8F1000F4EDD4FF0AB
:103A3000FF3220462946FCF781FF22462B46FCF741
:103A400097FC804600988A4660B3DDE90401414A4C
:103A5000414BFCF78DFC099100905A464046514677
:103A6000089BFCF755FE32463B46FCF781FC099B60
:103A7000009AFCF74DFE42465346FCF7EDFE224607
:103A80002B46FCF7E6FE04460D46DDE90401334A09
:103A9000334BFCF76DFC10B022462B46BDE8F04DD1
:103AA000FCF7D7BE5A464046089BFCF731FE32462B
:103AB0003B46FCF75DFC42465346FCF7CDFE10B09A
:103AC00022462B46BDE8F04DFCF7C6BE009840B339
:103AD000DDE904011F4A204BFCF74AFC80468A4678
:103AE0005A4620462946089BFCF7B3FE32463B4621
:103AF000FCF73EFC42465346FCF7ABFE22462B4603
:103B0000FCF7A7FE04460D46DDE90401134A144BF9
:103B1000FCF72EFC10B022462B46BDE8F04DFCF71A
:103B200098BE0B465A4620462946FCF792FE32467E
:103B30003B46FCF71DFC10B022462B46BDE8F04D7D
:103B4000FCF78ABE0000F07F645F09000000F03FD0
:103B5000221F0000763C7935EF39EA3D0000E0FE97
:103B6000422EE63F5555D53F0000E03F86EBF9FF7A
:103B7000BA1D0000B81D00002DE9F0410446304890
:103B80000025814205DA21F00042824201D805D1A8
:103B900024B12046BDE8F041FEF7E4B8B1F5801F3E
:103BA0001BDA52EA040008D000290FDA0120FEF7E0
:103BB000F1F8BDE8F041FEF7D8B80220FEF7EAF8C8
:103BC000FEF7C8F881F00041BDE8F0816FF03505DF
:103BD00036222046FCF7B2FE044605EB2150A0F247
:103BE000FF32D00F40F2FF331B1A0D4663F31F550F
:103BF0001044FCF7BAFE06460F4629462046FFF75A
:103C00000DFE104A104BFCF7B3FB04460D460F4A5D
:103C10000F4B30463946FCF7ABFB22462B46FCF7F0
:103C200077FD05460C460B4A0B4B30463946FCF7F0
:103C30009FFB2A462346BDE8F041FCF769BD000022
:103C40000000F07F0EE526157BCBDB3F362BF11114
:103C5000F3FE593D00609F501344D33F08B5FDF774
:103C60009FFCFDF787FCFDF749FF3FE020A0FEF732
:103C70000BF82348FEF708F8694622A0FCF752FA31
:103C800020A00099FEF700F800980B2828D2DFE862
:103C900000F006090C0F1215181B1E21240001F05C
:103CA00041FC21E001F042FB1EE001F0BDFB1BE006
:103CB00000F038F818E000F05FFA15E001F01CF8A9
:103CC00012E000F0FBFC0FE0FFF7A0FD0CE000F0BD
:103CD00021F809E0FDF784FC06E0FDF777FC03E03E
:103CE00009A0FDF7D1FF00BF00BF00BFBEE7000085
:103CF000C7EBD1A1D4F1B2D9D7F73A0A000000003E
:103D0000585A000825640A00CEDED0A7B2D9D7F7EA
:103D10000000000010B500214FF41660FDF7FEFD15
:103D200010BD000000B5AFB0FE48006B1590FCF769
:103D3000BCFBCDE92C01FB48C06A1590FCF7B5FB34
:103D4000CDE92A01F748806A1590FCF7AEFBCDE972
:103D50002801F448406A1590FCF7A7FBCDE926013D
:103D6000F048006A1590FCF7A0FBCDE92401ED486E
:103D7000C0691590FCF799FBCDE92201E9488069FB
:103D80001590FCF792FBCDE92001E64840691590BB
:103D9000FCF78BFBCDE91E01E24800691590FCF7AA
:103DA00084FBCDE91C01DF48C0681590FCF77DFB62
:103DB000CDE91A01DB4880681590FCF776FBCDE968
:103DC0001801D84840681590FCF76FFBCDE9160143
:103DD000DDE92C01CDE91401DDE92A01CDE912016B
:103DE000DDE92801CDE91001DDE92601CDE90E016B
:103DF000DDE92401CDE90C01DDE92201CDE90A016B
:103E0000DDE92001CDE90801DDE91E01CDE906016A
:103E1000DDE91C01CDE90401DDE91A01CDE902016A
:103E2000DDE91801CDE90001BF48DDE91623FDF702
:103E30002BFFBE48006B1590FCF737FBCDE92C013A
:103E4000BA48C06A1590FCF730FBCDE92A01B748A3
:103E5000806A1590FCF729FBCDE92801B348406A38
:103E60001590FCF722FBCDE92601B048006A1590B9
:103E7000FCF71BFBCDE92401AC48C0691590FCF7A9
:103E800014FBCDE92201A94880691590FCF70DFBD0
:103E9000CDE92001A54840691590FCF706FBCDE966
:103EA0001E01A24800691590FCF7FFFACDE91C013C
:103EB0009E48C0681590FCF7F8FACDE91A019B48B6
:103EC00080681590FCF7F1FACDE918019748406831
:103ED0001590FCF7EAFACDE91601DDE92C01CDE9F0
:103EE0001401DDE92A01CDE91201DDE92801CDE95E
:103EF0001001DDE92601CDE90E01DDE92401CDE95E
:103F00000C01DDE92201CDE90A01DDE92001CDE95D
:103F10000801DDE91E01CDE90601DDE91C01CDE95D
:103F20000401DDE91A01CDE90201DDE91801CDE95D
:103F300000017F48DDE91623FDF7A6FE7D48006BF2
:103F40001590FCF7B2FACDE92C017A48C06A1590B9
:103F5000FCF7ABFACDE92A017648806A1590FCF7A8
:103F6000A4FACDE928017348406A1590FCF79DFA40
:103F7000CDE926016F48006A1590FCF796FACDE965
:103F800024016C48C0691590FCF78FFACDE9220135
:103F9000684880691590FCF788FACDE920016548EA
:103FA00040691590FCF781FACDE91E01614800696E
:103FB0001590FCF77AFACDE91C015E48C0681590AF
:103FC000FCF773FACDE91A015A4880681590FCF79E
:103FD0006CFACDE91801574840681590FCF765FA6E
:103FE000CDE91601DDE92C01CDE91401DDE92A0155
:103FF000CDE91201DDE92801CDE91001DDE9260155
:10400000CDE90E01DDE92401CDE90C01DDE9220154
:10401000CDE90A01DDE92001CDE90801DDE91E0154
:10402000CDE90601DDE91C01CDE90401DDE91A0154
:10403000CDE90201DDE91801CDE900013E48DDE9E5
:104040001623FDF721FE3D48006B1590FCF72DFA75
:10405000CDE92C013948C06A1590FCF726FACDE964
:104060002A013648806A1590FCF71FFACDE928012D
:104070003248406A1590FCF718FACDE926012F481E
:10408000006A1590FCF711FACDE924012B48C069AC
:104090001590FCF70AFACDE92201284880691590AD
:1040A000FCF703FACDE92001244840691590FCF79C
:1040B000FCF9CDE91E01214800691590FCF7F5F9DE
:1040C000CDE91C011D48C0681590FCF7EEF9CDE95B
:1040D0001A011A4880681590FCF7E7F9CDE9180134
:1040E000164840681590FCF7E0F9CDE91601DDE9C6
:1040F0002C01CDE91401DDE92A01CDE91201DDE948
:104100002801CDE91001DDE92601CDE90E01DDE947
:104110002401CDE90C01DDE92201CDE90A01DDE947
:1041200020010DE09000002028580008C400002065
:104130006C580008F8000020B05800082C0100203E
:10414000CDE90801DDE91E01CDE90601DDE91C012B
:10415000CDE90401DDE91A01CDE90201DDE918012B
:10416000CDE900010348DDE91623FDF78DFD2FB0F1
:1041700000BD0000F458000800B5AFB0FE48006B69
:104180001590FCF792F9CDE92C01FB48C06A159017
:10419000FCF78BF9CDE92A01F748806A1590FCF706
:1041A00084F9CDE92801F448406A1590FCF77DF9BF
:1041B000CDE92601F048006A1590FCF776F9CDE9C3
:1041C0002401ED48C0691590FCF76FF9CDE9220193
:1041D000E94880691590FCF768F9CDE92001E648C7
:1041E00040691590FCF761F9CDE91E01E2480069CC
:1041F0001590FCF75AF9CDE91C01DF48C06815900D
:10420000FCF753F9CDE91A01DB4880681590FCF7FB
:104210004CF9CDE91801D84840681590FCF745F9EC
:10422000CDE91601DDE92C01CDE91401DDE92A0112
:10423000CDE91201DDE92801CDE91001DDE9260112
:10424000CDE90E01DDE92401CDE90C01DDE9220112
:10425000CDE90A01DDE92001CDE90801DDE91E0112
:10426000CDE90601DDE91C01CDE90401DDE91A0112
:10427000CDE90201DDE91801CDE90001BFA0DDE9CA
:104280001623FDF701FDCD48006B1590FCF70DF9E5
:10429000CDE92C01C948C06A1590FCF706F9CDE9B3
:1042A0002A01C648806A1590FCF7FFF8CDE928017D
:1042B000C248406A1590FCF7F8F8CDE92601BF48DE
:1042C000006A1590FCF7F1F8CDE92401BB48C069FC
:1042D0001590FCF7EAF8CDE92201B84880691590FD
:1042E000FCF7E3F8CDE92001B44840691590FCF7EC
:1042F000DCF8CDE91E01B14800691590FCF7D5F84E
:10430000CDE91C01AD48C0681590FCF7CEF8CDE9A9
:104310001A01AA4880681590FCF7C7F8CDE9180182
:10432000A64840681590FCF7C0F8CDE91601DDE914
:104330002C01CDE91401DDE92A01CDE91201DDE905
:104340002801CDE91001DDE92601CDE90E01DDE905
:104350002401CDE90C01DDE92201CDE90A01DDE905
:104360002001CDE90801DDE91E01CDE90601DDE905
:104370001C01CDE90401DDE91A01CDE90201DDE905
:104380001801CDE900018EA0DDE91623FDF77CFCC4
:104390009B48006B1590FCF788F8CDE92C019848F4
:1043A000C06A1590FCF781F8CDE92A019448806A2B
:1043B0001590FCF77AF8CDE928019148406A1590EC
:1043C000FCF773F8CDE926018D48006A1590FCF7DB
:1043D0006CF8CDE924018A48C0691590FCF765F8AE
:1043E000CDE92201864880691590FCF75EF8CDE999
:1043F0002001834840691590FCF757F8CDE91E016C
:104400007F4800691590FCF750F8CDE91C017C4805
:10441000C0681590FCF749F8CDE91A017848806822
:104420001590FCF742F8CDE91801754840681590E1
:10443000FCF73BF8CDE91601DDE92C01CDE91401CB
:10444000DDE92A01CDE91201DDE92801CDE91001FC
:10445000DDE92601CDE90E01DDE92401CDE90C01FC
:10446000DDE92201CDE90A01DDE92001CDE90801FC
:10447000DDE91E01CDE90601DDE91C01CDE90401FC
:10448000DDE91A01CDE90201DDE91801CDE90001FC
:104490005CA0DDE91623FDF7F7FB6A48006B159079
:1044A000FCF703F8CDE92C016648C06A1590FBF7CC
:1044B000FCFFCDE92A016348806A1590FBF7F5FF00
:1044C000CDE928015F48406A1590FBF7EEFFCDE982
:1044D00026015C48006A1590FBF7E7FFCDE924014F
:1044E0005848C0691590FBF7E0FFCDE92201554817
:1044F00080691590FBF7D9FFCDE92001514840694B
:104500001590FBF7D2FFCDE91E014E4800691590CA
:10451000FBF7CBFFCDE91C014A48C0681590FBF7BB
:10452000C4FFCDE91A01474880681590FBF7BDFF2D
:10453000CDE91801434840681590FBF7B6FFCDE977
:104540001601DDE92C01CDE91401DDE92A01CDE9EF
:104550001201DDE92801CDE91001DDE92601CDE9EF
:104560000E01DDE92401CDE90C01DDE92201CDE9EF
:104570000A01DDE9200167E030020020433A252EE0
:10458000326620252E326620252E326620252E32D8
:104590006620252E326620252E326620252E326694
:1045A00020252E326620252E326620252E326620CA
:1045B000252E326620252E32660D0A006402002068
:1045C000443A252E326620252E326620252E32666C
:1045D00020252E326620252E326620252E3266209A
:1045E000252E326620252E326620252E3266202585
:1045F0002E326620252E326620252E32660D0A00C8
:1046000098020020453A252E326620252E3266205B
:10461000252E326620252E326620252E3266202554
:104620002E326620252E326620252E326620252E3B
:10463000326620252E326620252E326620252E3227
:10464000660D0A00CC020020CDE90801DDE91E015B
:10465000CDE90601DDE91C01CDE90401DDE91A011E
:10466000CDE90201DDE91801CDE9000103A0DDE992
:104670001623FDF709FB2FB000BD0000463A252E9A
:10468000326620252E326620252E326620252E32D7
:104690006620252E326620252E326620252E326693
:1046A00020252E326620252E326620252E326620C9
:1046B000252E326620252E32660D0A0000B5AFB0D9
:1046C00001202D90CDE0FE492D9851F82000FD49A4
:1046D0002690FBF70FFE2790FBF7E7FECDE92801B8
:1046E000FFF74AFA81F00041CDE92A01FBF7F0FE1D
:1046F0000146F54A2D9842F82010F4492D9851F8BA
:104700002000F0492690FBF7F5FD2790FBF7CDFE42
:10471000CDE92801FFF730FA81F00041CDE92A0107
:10472000FBF7D6FE0146EA4A2D9842F82010E949E7
:104730002D9851F82000E3492690FBF7DBFD2790E8
:10474000FBF7B3FECDE92801FFF716FA81F000412F
:10475000CDE92A01FBF7BCFEDF4A2D9942F8210082
:10476000DE492D9851F82000D6492690FBF7C2FD6E
:104770002790FBF79AFECDE92801FFF7FDF981F0BC
:104780000041CDE92A01FBF7A3FED54A2D9942F855
:104790002100D4492D9851F82000CA492690FBF7F2
:1047A000A9FD2790FBF781FECDE92801FFF7E4F989
:1047B00081F00041CDE92A01FBF78AFECA4A2D9912
:1047C00042F82100C9492D9851F82000BD49269092
:1047D000FBF790FD2790FBF768FECDE92801FFF776
:1047E000CBF981F00041CDE92A01FBF771FEC04A07
:1047F0002D9942F82100BF492D9851F82000B14968
:104800002690FBF777FD2790FBF74FFECDE92801B7
:10481000FFF7B2F981F00041CDE92A01FBF758FE1C
:10482000B54A2D9942F82100B4492D9851F820003D
:10483000A4492690FBF75EFD2790FBF736FECDE9F5
:104840002801FFF799F981F00041CDE92A01FBF732
:104850003FFEAB4A2D9942F821002D98401CC0B272
:104860002D902D980D28FFF62EAF9B48006B1590CC
:10487000FBF71BFECDE92C019748C06A1590FBF7AA
:1048800014FECDE92A019448806A1590FBF70DFECD
:10489000CDE928019048406A1590FBF706FECDE966
:1048A00026018D48006A1590FBF7FFFDCDE9240134
:1048B0008948C0691590FBF7F8FDCDE922018648CB
:1048C00080691590FBF7F1FDCDE920018248406930
:1048D0001590FBF7EAFDCDE91E017F4800691590B0
:1048E000FBF7E3FDCDE91C017B48C0681590FBF7A1
:1048F000DCFDCDE91A01784880681590FBF7D5FDFD
:10490000CDE91801744840681590FBF7CEFDCDE95C
:104910001601DDE92C01CDE91401DDE92A01CDE91B
:104920001201DDE92801CDE91001DDE92601CDE91B
:104930000E01DDE92401CDE90C01DDE92201CDE91B
:104940000A01DDE92001CDE90801DDE91E01CDE91B
:104950000601DDE91C01CDE90401DDE91A01CDE91B
:104960000201DDE91801CDE900016648DDE9162301
:10497000FDF78AF95A48006B1590FBF796FDCDE9D3
:104980002C015748C06A1590FBF78FFDCDE92A012D
:104990005348806A1590FBF788FDCDE928015048FF
:1049A000406A1590FBF781FDCDE926014C48006A6D
:1049B0001590FBF77AFDCDE924014948C0691590AF
:1049C000FBF773FDCDE92201454880691590FBF79F
:1049D0006CFDCDE92001424840691590FBF765FD6B
:1049E000CDE91E013E4800691590FBF75EFDCDE95B
:1049F0001C013B48C0681590FBF757FDCDE91A0133
:104A0000374880681590FBF750FDCDE91801344810
:104A100040681590FBF749FDCDE91601DDE92C0151
:104A2000CDE91401DDE92A01CDE91201DDE9280112
:104A3000CDE91001DDE92601CDE90E01DDE9240112
:104A4000CDE90C01DDE92201CDE90A01DDE9200112
:104A5000CDE90801DDE91E01CDE90601DDE91C0112
:104A6000CDE90401DDE91A01CDE90201DDE9180112
:104A7000CDE900012448DDE91623FDF705F91A48C0
:104A8000006B1590FBF711FDCDE92C011648C06AAB
:104A90001590FBF70AFDCDE92A011348806A1590AD
:104AA000FBF703FDCDE928010F48406A1590FBF79D
:104AB000FCFCCDE926010C48006A159026E00000B8
:104AC000680300200000C842080500209C03002065
:104AD0003C050020D00300207005002004040020C5
:104AE000A405002038040020D80500206C04002014
:104AF0000C060020A004002040060020D404002062
:104B0000740600203859000880590008FBF7CDFCD6
:104B1000CDE924017448C0691590FBF7C6FCCDE9C6
:104B20002201714880691590FBF7BFFCCDE9200197
:104B30006D4840691590FBF7B8FCCDE91E016A4845
:104B400000691590FBF7B1FCCDE91C016648C0680F
:104B50001590FBF7AAFCCDE91A016348806815900F
:104B6000FBF7A3FCCDE918015F4840681590FBF7FF
:104B70009CFCCDE91601DDE92C01CDE91401DDE94C
:104B80002A01CDE91201DDE92801CDE91001DDE9B5
:104B90002601CDE90E01DDE92401CDE90C01DDE9B5
:104BA0002201CDE90A01DDE92001CDE90801DDE9B5
:104BB0001E01CDE90601DDE91C01CDE90401DDE9B5
:104BC0001A01CDE90201DDE91801CDE900014748EC
:104BD000DDE91623FDF758F84548006B1590FBF703
:104BE00064FCCDE92C014248C06A1590FBF75DFCDE
:104BF000CDE92A013E48806A1590FBF756FCCDE9C5
:104C000028013B48406A1590FBF74FFCCDE926018F
:104C10003748006A1590FBF748FCCDE92401344879
:104C2000C0691590FBF741FCCDE92201304880694D
:104C30001590FBF73AFCCDE920012D48406915900D
:104C4000FBF733FCCDE91E01294800691590FBF7FD
:104C50002CFCCDE91C012648C0681590FBF725FC0B
:104C6000CDE91A01224880681590FBF71EFCCDE9BA
:104C700018011F4840681590FBF717FCCDE9160195
:104C8000DDE92C01CDE91401DDE92A01CDE91201AC
:104C9000DDE92801CDE91001DDE92601CDE90E01AC
:104CA000DDE92401CDE90C01DDE92201CDE90A01AC
:104CB000DDE92001CDE90801DDE91E01CDE90601AC
:104CC000DDE91C01CDE90401DDE91A01CDE90201AC
:104CD000DDE91801CDE900010648DDE91623FCF7FE
:104CE000D3FF2FB000BD0000D8050020C859000830
:104CF0000C060020105A000800B5AFB001202D901E
:104D0000BBE0FE492D9851F8200001462B90FC484D
:104D1000FBF7BEFAFB492C902D9851F82000014674
:104D20002B902C98FBF7E6FAF74A2D9942F82100D0
:104D3000F6492D9851F8200001462B90F048FBF7DA
:104D4000A7FAF3492C902D9851F8200001462B909A
:104D50002C98FBF7CFFAEF4A2D9942F82100EE4943
:104D60002D9851F8200001462B90E548FBF790FA6A
:104D7000EA492C902D9851F8200001462B902C9850
:104D8000FBF7B8FAE64A2D9942F82100E5492D983B
:104D900051F8200001462B90D948FBF779FAE249F7
:104DA0002C902D9851F8200001462B902C98FBF761
:104DB000A1FADE4A2D9942F82100DD492D9851F8DB
:104DC000200001462B90CE48FBF762FAD9492C907F
:104DD0002D9851F8200001462B902C98FBF78AFA69
:104DE000D54A2D9942F82100D4492D9851F8200038
:104DF00001462B90C248FBF74BFAD1492C902D98D5
:104E000051F8200001462B902C98FBF773FACD4AFD
:104E10002D9942F82100CC492D9851F820000146E7
:104E20002B90B748FBF734FAC8492C902D9851F8CD
:104E3000200001462B902C98FBF75CFAC44A2D9970
:104E400042F82100C3492D9851F8200001462B90CB
:104E5000AB48FBF71DFAC0492C902D9851F8200063
:104E600001462B902C98FBF745FABC4A2D9942F845
:104E700021002D98401CC0B22D902D980D28FFF6D2
:104E800040AFA748006B1590FBF70FFBCDE92C0155
:104E9000A348C06A1590FBF708FBCDE92A01A0489A
:104EA000806A1590FBF701FBCDE928019C48406A18
:104EB0001590FBF7FAFACDE926019948006A15909A
:104EC000FBF7F3FACDE924019548C0691590FBF78B
:104ED000ECFACDE92201924880691590FBF7E5FADA
:104EE000CDE920018E4840691590FBF7DEFACDE947
:104EF0001E018B4800691590FBF7D7FACDE91C011C
:104F00008748C0681590FBF7D0FACDE91A018448AC
:104F100080681590FBF7C9FACDE918018048406810
:104F20001590FBF7C2FACDE91601DDE92C01CDE9B8
:104F30001401DDE92A01CDE91201DDE92801CDE9FD
:104F40001001DDE92601CDE90E01DDE92401CDE9FD
:104F50000C01DDE92201CDE90A01DDE92001CDE9FD
:104F60000801DDE91E01CDE90601DDE91C01CDE9FD
:104F70000401DDE91A01CDE90201DDE91801CDE9FD
:104F800000017748DDE91623FCF77EFE6748006BD9
:104F90001590FBF78AFACDE92C016448C06A159098
:104FA000FBF783FACDE92A016048806A1590FBF788
:104FB0007CFACDE928015D48406A1590FBF775FA47
:104FC000CDE926015948006A1590FBF76EFACDE944
:104FD00024015648C0691590FBF767FACDE9220114
:104FE000524880691590FBF760FACDE920014F48DF
:104FF00040691590FBF759FACDE91E014B4800694D
:105000001590FBF752FACDE91C014848C06815908D
:10501000FBF74BFACDE91A01444880681590FBF77D
:1050200044FACDE91801414840681590FBF73DFA74
:10503000CDE91601DDE92C01CDE91401DDE92A01F4
:10504000CDE91201DDE92801CDE91001DDE92601F4
:10505000CDE90E01DDE92401CDE90C01DDE92201F4
:10506000CDE90A01DDE92001CDE90801DDE91E01F4
:10507000CDE90601DDE91C01CDE90401DDE91A01F4
:10508000CDE90201DDE91801CDE900013548DDE98E
:105090001623FCF7F9FD2848006B1590FBF705FA7D
:1050A000CDE92C012448C06A1590FBF7FEF9CDE943
:1050B0002A012148806A1590FBF7F7F9CDE928010C
:1050C0001D48406A1590FBF7F0F9CDE926011A4812
:1050D000006A1590FBF7E9F9CDE924011648C0698B
:1050E0001590FBF7E2F9CDE922011348806915908C
:1050F000FBF7DBF9CDE920010F4835E0C8010020BE
:105100000000C8422800002068030020FC010020A5
:105110005C0000209C030020300200209000002052
:10512000D003002064020020C400002004040020FA
:1051300098020020F800002038040020CC02002053
:105140002C0100206C0400200003002060010020DE
:10515000A00400203403002094010020D404002087
:10516000285800086C58000840691590FBF79DF915
:10517000CDE91E01694800691590FBF796F9CDE964
:105180001C016648C0681590FBF78FF9CDE91A013C
:10519000624880681590FBF788F9CDE918015F48EF
:1051A00040681590FBF781F9CDE91601DDE92C0186
:1051B000CDE91401DDE92A01CDE91201DDE928017B
:1051C000CDE91001DDE92601CDE90E01DDE924017B
:1051D000CDE90C01DDE92201CDE90A01DDE920017B
:1051E000CDE90801DDE91E01CDE90601DDE91C017B
:1051F000CDE90401DDE91A01CDE90201DDE918017B
:10520000CDE900014648DDE91623FCF73DFD4548A0
:10521000006B1590FBF749F9CDE92C014148C06AB4
:105220001590FBF742F9CDE92A013E48806A1590B6
:10523000FBF73BF9CDE928013A48406A1590FBF7A6
:1052400034F9CDE926013748006A1590FBF72DF9AE
:10525000CDE924013348C0691590FBF726F9CDE963
:105260002201304880691590FBF71FF9CDE9200134
:105270002C4840691590FBF718F9CDE91E01294823
:1052800000691590FBF711F9CDE91C012548C068AC
:105290001590FBF70AF9CDE91A01224880681590AC
:1052A000FBF703F9CDE918011E4840681590FBF79C
:1052B000FCF8CDE91601DDE92C01CDE91401DDE9A9
:1052C0002A01CDE91201DDE92801CDE91001DDE96E
:1052D0002601CDE90E01DDE92401CDE90C01DDE96E
:1052E0002201CDE90A01DDE92001CDE90801DDE96E
:1052F0001E01CDE90601DDE91C01CDE90401DDE96E
:105300001A01CDE90201DDE91801CDE900010648E5
:10531000DDE91623FCF7B8FC2FB000BD38040020EF
:10532000B05800086C040020F458000810B5FBF7D2
:10533000ABFF4FF47A70FCF76DFB012145F20820BA
:10534000FCF7ECFA4FF47A70FCF764FB002178204C
:10535000FCF7E4FA0C244BE04FF4FA70FCF75AFB2C
:10536000FCF748F9284941F824006420FCF752FB77
:10537000FCF752F9254941F824006420FCF74AFB68
:10538000FCF75CF9224941F824006420FCF742FB59
:10539000FCF766F91F4941F824006420FCF73AFB4A
:1053A000FCF770F91C4941F824006420FCF732FB3B
:1053B000FCF77AF9194941F824006420FCF72AFB2C
:1053C000FCF784F9164941F824006420FCF722FB1D
:1053D000FCF78EF9134941F824004FF4FA70FCF7FA
:1053E00019FB00214FF49660FCF798FA601EC4B2D6
:1053F000002CB1DC4FF47A70FCF70CFB002141F279
:10540000F810FCF78BFA10BD280000205C0000208B
:1054100090000020C4000020F80000202C01002093
:10542000600100209401002010B5FBF72DFF4FF420
:105430007A70FCF7EFFA012145F20820FCF76EFACA
:105440004FF47A70FCF7E6FA00217820FCF766FA50
:105450000C244BE04FF4FA70FCF7DCFAFCF7CAF8C6
:10546000284941F824006420FCF7D4FAFCF7D4F86A
:10547000254941F824006420FCF7CCFAFCF7DEF85B
:10548000224941F824006420FCF7C4FAFCF7E8F84C
:105490001F4941F824006420FCF7BCFAFCF7F2F83D
:1054A0001C4941F824006420FCF7B4FAFCF7FCF82E
:1054B000194941F824006420FCF7ACFAFCF706F91E
:1054C000164941F824006420FCF7A4FAFCF710F90F
:1054D000134941F824004FF4FA70FCF79BFA0021BD
:1054E0004FF49660FCF71AFA601EC4B2002CB1DCCF
:1054F0004FF47A70FCF78EFA002141F2F810FCF7B5
:105500000DFA10BDC8010020FC010020300200206F
:105510006402002098020020CC020020000300203A
:105520003403002010B54620FDF784F918B935A0E2
:10553000FCF7AAFB02E039A0FCF7A6FBFBF795FC01
:10554000B820FDF77BFA18B93AA0FCF79DFB02E002
:105550003EA0FCF799FBFBF7CDFC4620FDF772FB64
:1055600018B940A0FCF790FB02E044A0FCF78CFBCC
:10557000FBF705FDB820FDF769FC18B945A0FCF75D
:1055800083FB02E049A0FCF77FFBFBF73DFD4620D3
:10559000FDF760FD18B94BA0FCF776FB02E04FA0C9
:1055A000FCF772FBFBF775FDB820FDF757FE18B945
:1055B00050A0FCF769FB02E054A0FCF765FBFBF789
:1055C000ADFD4620FDF74EFF18B956A0FCF75CFB79
:1055D00002E05AA0FCF758FBFBF7E5FDB820FEF708
:1055E00045F818B95BA0FCF74FFB02E05FA0FCF7A1
:1055F0004BFBFBF71DFE63A0FCF746FB65A0FCF729
:1056000043FB10BD42483137353041C9E8B1B8BC21
:10561000ECB2E2B3C9B9A60D0A0000004248313726
:10562000353041C9E8B1B8BCECB2E2CAA7B0DC0D74
:105630000A00000042483137353042C9E8B1B8BCF1
:10564000ECB2E2B3C9B9A60D0A00000042483137F6
:10565000353042C9E8B1B8BCECB2E2CAA7B0DC0D43
:105660000A00000042483137353043C9E8B1B8BCC0
:10567000ECB2E2B3C9B9A60D0A00000042483137C6
:10568000353043C9E8B1B8BCECB2E2CAA7B0DC0D12
:105690000A00000042483137353044C9E8B1B8BC8F
:1056A000ECB2E2B3C9B9A60D0A0000004248313796
:1056B000353044C9E8B1B8BCECB2E2CAA7B0DC0DE1
:1056C0000A00000042483137353045C9E8B1B8BC5E
:1056D000ECB2E2B3C9B9A60D0A0000004248313766
:1056E000353045C9E8B1B8BCECB2E2CAA7B0DC0DB0
:1056F0000A00000042483137353046C9E8B1B8BC2D
:10570000ECB2E2B3C9B9A60D0A0000004248313735
:10571000353046C9E8B1B8BCECB2E2CAA7B0DC0D7E
:105720000A00000042483137353047C9E8B1B8BCFB
:10573000ECB2E2B3C9B9A60D0A0000004248313705
:10574000353047C9E8B1B8BCECB2E2CAA7B0DC0D4D
:105750000A00000042483137353048C9E8B1B8BCCA
:10576000ECB2E2B3C9B9A60D0A00000042483137D5
:10577000353048C9E8B1B8BCECB2E2CAA7B0DC0D1C
:105780000A000000C9E8B1B8D7BCB1B8CDEAB1CFC2
:105790000D0A0000C7EBBDF8D0D0CFC2D2BBB2BD5E
:1057A000B2D9D7F70D0A000004FA97999999D93F11
:1057B000AF788E1DC571CC3F9FC678D0099AC33F84
:1057C000935555555555E53F599322942449D23F59
:1057D000DE03CB966446C73F44523EDF12F1C23F20
:1057E0000000000000000000DDDDDDDDDCBBBBDD16
:1057F000DDDDDDDDDDDDDDDD988888888888888871
:105800007777777777888888855555566666666690
:10581000666666666668888883333332222222226F
:10582000222222222228888D43312D31323A252E00
:10583000326620252E326620252E326620252E3215
:105840006620252E326620252E326620252E3266D1
:1058500020252E326620252E326620252E32662007
:10586000252E326620252E32660D0A0044312D3158
:10587000323A252E326620252E326620252E3266BB
:1058800020252E326620252E326620252E326620D7
:10589000252E326620252E326620252E32662025C2
:1058A0002E326620252E326620252E32660D0A0005
:1058B00045312D31323A252E326620252E32662092
:1058C000252E326620252E326620252E3266202592
:1058D0002E326620252E326620252E326620252E79
:1058E000326620252E326620252E326620252E3265
:1058F000660D0A0046312D31323A252E32662025BA
:105900002E326620252E326620252E326620252E48
:10591000326620252E326620252E326620252E3234
:105920006620252E326620252E326620252E3266F0
:1059300020252E32660D0A004F4443312D31323A74
:10594000252E336620252E336620252E336620250E
:105950002E336620252E336620252E336620252EF5
:10596000336620252E336620252E336620252E33E0
:105970006620252E336620252E33660D0A00000092
:105980004F4444312D31323A252E336620252E33B3
:105990006620252E336620252E336620252E33667D
:1059A00020252E336620252E336620252E336620B3
:1059B000252E336620252E336620252E336620259E
:1059C0002E33660D0A0000004F4445312D31323A26
:1059D000252E336620252E336620252E336620257E
:1059E0002E336620252E336620252E336620252E65
:1059F000336620252E336620252E336620252E3350
:105A00006620252E336620252E33660D0A00000001
:105A10004F4446312D31323A252E336620252E3320
:105A20006620252E336620252E336620252E3366EC
:105A300020252E336620252E336620252E33662022
:105A4000252E336620252E336620252E336620250D
:105A50002E33660D0A00000020303AB2E2CAD4B4F8
:105A6000ABB8D0C6F70A20313AB2CED5D5B0E5B240
:105A7000C9D1F920323AB4FDB2E2B0E5B2C9D1F9E8
:105A8000200A20333AB2CED5D5B0E6CAFDBEDDCA73
:105A9000E4B3F620343AB4FDB2E2B0E5CAFDBEDDAF
:105AA000CAE4B3F6200A20353ACDB8B9E2C2CACA70
:105AB000E4B3F620363ACEFCB9E2B6C8CAE4B3F68F
:105AC000200A20373AB4E6B0E520383ACDCBB0E52D
:105AD000200A393ABFAAB5C62031303AB9D8B5C67E
